:100A3B000A53797374656D20496E69742E2E2E00DE
:100A4B00074550524F4D204552524F52210A4C6F81
:100A5B0061642044656661756C742E2E2E000A2528
:100A6B00732020202020202020202020200007453C
:100A7B006E7465722050617373776F72643A0008FD
:100A8B0050617373776F7264204572726F722100BD
:100A9B000700084D4158494D554D20424F4F535477
:100AAB000A564F4C5441474520256F5620000842AB
:100ABB004F4F53542054415045522041540A564FE6
:100ACB004C5441474520256F56200008464C4F415A
:100ADB0054204D4158494D554D0A564F4C544147A2
:100AEB004520256F56200008464C4F4154204D4958
:100AFB004E494D554D0A564F4C5441474520256F95
:100B0B005620000852455455524E20544F20424F08
:100B1B004F53540A4D4F44452042454C4F572025C7
:100B2B006F5620000854454D50455241545552457F
:100B3B0020434F4D500A4154202D25646D562FDF15
:100B4B00432F43454C4C20000853544154452043FC
:100B5B0048414E47450A44454C4159202564205392
:100B6B002020000753415645204348414E47453FFF
:100B7B000A494E433D594553204F544845523D4E2B
:100B8B004F00084C4F572042415454455259204175
:100B9B004C2D0A41524D204F4E20415420256F566B
:100BAB002000085245434F4E4E454354204C4F4175
:100BBB00440A41424F564520256F562000084849AC
:100BCB004748204241545445525920414C2D0A412B
:100BDB00524D204F4E20415420256F562000084483
:100BEB00454C4159204245464F52450A44495343CF
:100BFB004F4E4E454354202564205320200008536C
:100C0B006974204E756D6265723A0A256420200066
:100C1B004F4646004F4E000842414E4B2565000A99
:100C2B005B25735D2020202020256F4120200007AD
:100C3B0044256520483A256F204C3A256F56000A0B
:100C4B00433A256420443A25640007436C6561727E
:100C5B002048697374726F79210A41726520796F2C
:100C6B007520737572653F0054657374204D6F6406
:100C7B0065004D657465722041646A757374000775
:100C8B0025732000085445535420413A2565002014
:100C9B0025630025630025632020000A423A2025A6
:100CAB006F5620543A2564200007494E2025650ACB
:100CBB002565202000415426464530563058305388
:100CCB00303D310D00415426460D00415445305600
:100CDB003058300D00415453303D325331303D319B
:100CEB00300D00084241545445525920564F4C5434
:100CFB004147450A20202020202020202020256F3E
:100D0B00562000084348415247452043555252450F
:100D1B004E540A20202020202020202020256F4107
:100D2B002000084C4F414420564F4C544147450A34
:100D3B0020202020202020202020256F5620000856
:100D4B004C4F41442043555252454E540A202020CB
:100D5B0020202020202020256F412000039F250DDF
:100D6B009949411F0109FFE0D0B070E1D1B171E2A7
:100D7B00D2B272E3D3B373FF0A9DFF0AB9FF0AD64F
:100D8B00FF0AF2FF0B0EFF0B2FFF0B530640064023
:100D9B000640064006400014016802EE02EE02EE29
:100DAB0002EE02EE00000006FF0B8DFF0BADFF0BFA
:100DBB00C8FF0BE906400640064000FA02EE02EEC1
:100DCB0002EE0001FF0C1BFF0C1FFF0C73FF0C7DD1
:101C86007F081221F7AC06AD077F011222F17F080B
:101C96001221F7EF7802C333CE33CED8F9FDAC0666
:101CA600C004C0057F071221F7D0E02FFFD0E03E29
:101CB600FE7C007D051213F0AC06AD077F021222F2
:101CC600F17F081221F77C007D031213DEC006C0E7
:101CD600077F071221F7EF25E0FDEE33FCD0E02D5C
:101CE600FFD0E03CFE7C007D051213F0AC06AD078C
:101CF6007F031222F17F071221F77C007D03121366
:101D0600DEC006C0077F081221F7EF25E0FDEE339F
:101D1600FCD0E02DFFD0E03CFE7C007D051213F0E8
:101D2600AC06AD077F041222F17F071221F7EF7888
:101D360002C333CE33CED8F9FDAC06C004C0057F4E
:101D4600081221F7D0E02FFFD0E03EFE7C007D0593
:101D56001213F0AC06AD077F051222F17F071221A0
:0B1D6600F7AC06AD077F061222F12249
:101A7400C2B6758010755810755610D2A4D2A3C280
:101A8400A4C2A3E4F555D208F539E539C3940C5042
:101A9400097F03122540053980F07D007C287F3EB4
:101AA4001222F1D20212000E7BFF7A0A793B120D48
:101AB400DB7F407E1F1225B1D204E4F559FF1221C9
:101AC400F7EF64494E7003021B737BFF7A0A794B6C
:101AD400120DDB1225CF7D647C057F071222F17D78
:101AE4000A7C057F081222F17D0A7C057F091222F7
:101AF400F17DD87C047F0A1222F17D3C7C007F0DAD
:101B04001222F17D747C047F0B1222F1E4FDFC7F30
:101B14000C1222F17D067C047F0E1222F17DC37C1F
:101B2400057F101222F17D977C047F0F1222F17D34
:101B3400C87C007F111222F1753925E539C3942D33
:101B4400500D7D387C00AF391222F1053980EC75D7
:101B5400392DE539C3943D500D7D807C00AF391299
:101B640022F1053980EC7D497C00E4FF1222F11258
:101B74001C8675A81275B810759870758921758DB5
:0B1B8400FDE4F587D28ED28CD2AF2298
:10216700E55654F04FF556F580D2A3C2A3E4F537F0
:10217700F538F533E533C394FF5004053380F5E4B0
:10218700F533E533C394105053E4FCFDC2B7D2B521
:10219700C2B230B5FDD2B7C2B7D2B7A2B5E43342A7
:1021A70005E4C2B7F534E534C3940B5019D2B7ED43
:1021B70025E0FFEC33FEA2B5E433FBEEFCEF4BFD6D
:1021C700C2B7053480E0D2B5D2B7D2B2ED2538F523
:1021D70038EC3537F537B2B4053380A6E537C4F8A0
:1021E70054F0C868FCE538C4540F48FDFFAE04221C
:10192800AA07EA1215A019D100197D01197D02191B
:101938007D03197D04197D05197D0619650719A40C
:101948000819F60919E90A1A03101A0F111A1B12B5
:101958001A27131A33141A3F1500001A4BAF021234
:101968002167EF7802C333CE33CED8F9FF7C007DF0
:10197800051214452243583F855880D2A4C2A4AF0B
:10198800021221678E318F32E5327802C333CE33AB
:10199800CED8F9FF7C007D0512144522AF02122132
:1019A80067EF248CFFEE34F4FE7C007D0A121445A8
:1019B8008E318F32D3E5329464E531940040057E50
:1019C800007F0022AE31AF3222AF02122167EF78DA
:1019D80002C333CE33CED8F9FF7C007D05121445FF
:1019E80022AF021221677C007D0212144522AF0249
:1019F8001221677C007D0412144522E558443F54A7
:101A0800FEF5587A098041E558443F54FDF5587A67
:101A1800098035E558443F54FBF5587A098029E593
:101A280058443F54F7F5587A09801DE558443F5407
:101A3800EFF5587A098011E558443F54DFF5587A94
:101A48000980057E007F0022855880D2A4C2A4EABE
:101A5800B4090CFF1221677C007D0412144522AFE3
:0C1A6800021221677C007D04121445224C
:10258C008F3C853C6FE4F53CE53CC394FF5015E56E
:10259C006FB4FF05AE65AF66227F147E001225B1C5
:0525AC00053C80E42263
:03000B00020026CA
:10002600C0E0C0F0C083C082C0D075D000C000C0A0
:1000360001C002C003C004C005C006C007758C4CD1
:10004600758A01E56FF4600CAF6F1219288E658F03
:1000560066756FFF30070312058DAF520552EF64C8
:100066001360030204ECB2B4F552200303020254F7
:100076007F091219288E228F237C007D0A1213F025
:1000860074672DF582740D3CF583E493F524AE2256
:10009600AF237C007D0A1213F08E228F237C007D15
:1000A6000A1213F074672DF582740D3CF583E49300
:1000B60014F525AE22AF237C007D0A1213F08E22A2
:1000C6008F237C007D0A1213F074672DF582740D60
:1000D6003CF583E493F526AE22AF237C007D0A121D
:1000E60013F08E228F237C007D0A1213F074672D85
:1000F600F582740D3CF583E493F5278563228564C8
:1001060023AE22AF237C007D0A1213F074672DF50F
:1001160082740D3CF583E493F528AE22AF237C0070
:100126007D0A1213F08E228F237C007D0A1213F0B3
:1001360074672DF582740D3CF583E49314F529AEAE
:1001460022AF237C007D0A1213F08E228F237C00BF
:100156007D0A1213F074672DF582740D3CF583E465
:1001660093F52AAE22AF237C007D0A1213F08E226D
:100176008F237C007D0A1213F074672DF582740DAF
:100186003CF583E493F52B7F0A1219288E228F23E0
:100196007C007D0A1213F074672DF582740D3CF510
:1001A60083E493F52CAE22AF237C007D0A1213F074
:1001B6008E228F237C007D0A1213F074672DF58240
:1001C600740D3CF583E49314F52DAE22AF237C0029
:1001D6007D0A1213F08E228F237C007D0A1213F003
:1001E60074672DF582740D3CF583E493F52EAE22EB
:1001F600AF237C007D0A1213F08E228F237C007DB4
:100206000A1213F074672DF582740D3CF583E4939E
:10021600F52FAF24122540AF25122540AF26122513
:0302260040AF27BF
:10022900122540AF28122540AF29122540AF2A12C6
:100239002540AF2B122540AF2C122540AF2D12259A
:1002490040AF2E122540AF2F122540E4FF12192886
:100259008E638F647F0C1221F77C007D181213DEE8
:10026900C006C0077F08121928AC06AD07D007D011
:10027900061213DE7C007D641213F0C3E5649FF55A
:1002890023E5639EF522E557C3940740030203184B
:10029900E55714FF1221F7C3E5239FE5229E502855
:1002A900E55714B5530CE56060030203A71557021F
:1002B90003A7E55714F5533005047F0280057F0D28
:1002C9001221F78F600203A7AF571221F7C3E52365
:1002D9009FE5229E4033E5572401FFE433FEE553B1
:1002E900B50710E4B5060CE56060030203A70557DE
:1002F9000203A7E55704F5533005047F0280057F03
:100309000D1221F78F600203A77553000203A7E5B9
:1003190057B40D077F0B1221F780057F0A1221F7C9
:10032900C3E5239FE5229E503BE5572401FFE433B3
:10033900FEE553B50719E4B50615E5607060E557A4
:10034900B40D047F018004E55704FF8F57804FE502
:100359005704F5533005047F0280057F0D1221F7FC
:100369008F60803A7F091221F7D3E5239FE5229E0A
:100379004029E55764076023E55714B55308E5603C
:10038900701C15578018E55714F5533005047F0282
:1003990080057F0D1221F78F608003755300D3E527
:1003A900239568E52295674006852267852368C3FA
:1003B900E523956AE5229569500685226985236AB0
:1003C9007F09121928EE3395E0FDFCE55E2FF55EF5
:1003D900E55D3EF55DE55C3DF55CE55B3CF55B7F28
:1003E9000A121928EE3395E0FDFCE56E2FF56EE54E
:0603F9006D3EF56DE56CA0
:1003FF003DF56CE56B3CF56BE555705C7F1012219C
:10040F00F7D3E5239FE5229E401AE55460030204CB
:10041F00B74356A0755501E555FD7C007FFE1225AB
:10042F00170204B77F0E1221F7C3E5239FE5229E23
:10043F005016E55470724356C0755502E555FD7C54
:10044F00007FFE12251780603005047F0280057F34
:10045F00111221F78F548050E5556401702A7F10D7
:10046F001221F7EF2447FFEE34FFFEC3E5239FE58C
:10047F00229E503453565F755500D208E555FD7CCA
:10048F00007FFE12251780207F0F1221F7D3E5235F
:10049F009FE5229E401253563F755500D208E555F1
:1004AF00FD7C007FFE12251715601554AF5F055FA9
:1004BF00EF643B7028F55F055AE555FD7C007FFE24
:1004CF00122517AF620562EFB43B12756200D201BD
:1004DF00AF610561EFB41705756100D200AF80758C
:1004EF0022008F23855680D2A3C2A3E55714B40DE3
:1004FF00005051900509F828287302053002053580
:10050F0002053A02053F02054402054902054E0263
:10051F00054902054402053F02053A020535020569
:10052F00307558008021755820801C755830801701
:10053F00755838801275583C800D75583E80087577
:10054F00583F8003755701E555600B300805435838
:10055F0080800353587F200607855880D2A4C2A4F9
:10056F00852380D007D006D005D004D003D002D089
:0E057F0001D000D0D0D082D083D0F0D0E032B6
:10058D007812E66401600302084A08E61215A00617
:10059D000900061501062602063103063C0406472E
:1005AD0005065206065D07066808067C0906890AD7
:1005BD0006960E06A70F06B81006C91106DA120622
:1005CD00EB1306FC14070D15071E20072F210740FE
:1005DD0022075123076224077325078426079527D1
:1005ED0007A62807B72907C82A07D92B07EA2C071A
:1005FD00FB2D080C2E081D430000083EAD64AC63B6
:10060D00E4FF122517020A387F07121928AC06AD30
:10061D00077F01122517020A38E4FDFC7F0212251F
:10062D0017020A38E4FDFC7F03122517020A38E48D
:10063D00FDFC7F04122517020A38E4FDFC7F05122C
:10064D002517020A38E4FDFC7F06122517020A3829
:10065D00E4FDFC7F07122517020A387F08121928BE
:10066D00EF2414FDE43EFC7F08122517020A38E53D
:10067D0057FD7C007F09122517020A38E555FD7CD0
:10068D00007F0A122517020A387F0A121928AC06B4
:10069D00AD077F0E122517020A387F09121928ACF3
:1006AD0006AD077F0F122517020A387F1012192881
:1006BD00AC06AD077F10122517020A387F111219EB
:1006CD0028AC06AD077F11122517020A387F1212CA
:1006DD001928AC06AD077F12122517020A387F13B1
:1006ED00121928AC06AD077F13122517020A387FA1
:1006FD0014121928AC06AD077F14122517020A38FB
:10070D007F15121928AC06AD077F15122517020AA1
:10071D00387F071221F7AC06AD077F20122517028F
:10072D000A387F081221F7AC06AD077F2112251775
:10073D00020A387F091221F7AC06AD077F22122578
:10074D0017020A387F0A1221F7AC06AD077F231274
:10075D002517020A387F0B1221F7AC06AD077F244F
:10076D00122517020A387F0C1221F7AC06AD077F50
:10077D0025122517020A387F0D1221F7AC06AD0799
:10078D007F26122517020A387F0E1221F7AC06AD0F
:10079D00077F27122517020A387F0F1221F7AC06A3
:1007AD00AD077F28122517020A387F101221F7ACEA
:1007BD0006AD077F29122517020A387F111221F77E
:1007CD00AC06AD077F2A122517020A387F3E12218B
:0A07DD00F7AC06AD077F2B122517BD
:1007E700020A387F3F1221F7AC06AD077F2C12258E
:1007F70017020A387F401221F7AC06AD077F2D128A
:100807002517020A387F411221F7AC06AD077F2E64
:10081700122517020A38753044E530C394C44003E3
:10082700020A38AF301221F7AC06AD07AF301225F8
:1008370017B2B4053080E27DFF7C007FFF122517D9
:10084700020A387813E624E0B40B004003020A0ECC
:1008570090085EF828287302087F0208A60208CDD0
:100867000208F102091502093902095D020981022C
:1008770009A50209C80209EB7814E6FE08E67C0020
:100887002400FDEC3EFC7F071222F17F071221F7BF
:10089700AC06AD077F20122517121C86020A38788E
:1008A70014E6FE08E67C002400FDEC3EFC7F0812FF
:1008B70022F17F081221F7AC06AD077F2112251719
:1008C700121C86020A387814E6FE08E67C0024002B
:1008D700FDEC3EFC7F091222F17F091221F7AC06DD
:1008E700AD077F22122517020A387814E6FE08E6BC
:1008F7007C002400FDEC3EFC7F0A1222F17F0A12E5
:1009070021F7AC06AD077F23122517020A387814A2
:10091700E6FE08E67C002400FDEC3EFC7F0B12227D
:10092700F17F0B1221F7AC06AD077F2412251702C2
:100937000A387814E6FE08E67C002400FDEC3EFC4D
:100947007F0C1222F17F0C1221F7AC06AD077F2531
:10095700122517020A387814E6FE08E67C00240000
:10096700FDEC3EFC7F0D1222F17F0D1221F7AC0644
:10097700AD077F26122517020A387814E6FE08E627
:100987007C002400FDEC3EFC7F0E1222F17F0E124C
:1009970021F7AC06AD077F27122517020A3878140E
:1009A700E6FE08E67C002400FDEC3EFC7F0F1222E9
:1009B700F17F0F1221F7AC06AD077F2812251780AC
:1009C700707814E6FE08E67C002400FDEC3EFC7F10
:1009D700101222F17F101221F7AC06AD077F291202
:1009E7002517804D7814E6FE08E67C002400FDEC10
:1009F7003EFC7F111222F17F111221F7AC06AD07E1
:100A07007F2A122517802A7813E6FFC00708E6FE1B
:100A170008E67C002400FDEC3EFCD0071222F178AA
:100A270013E6FF1221F7AC06AD077813E6FF122590
:040A370017C20722B9
:10243500C2AFC295C296C297D294D2973094FDD2BC
:1024450095D296C296EF700CC295D296C296D29648
:10245500C296800CC295D296C296D296C2967FC07D
:10246500E4FEEEC394085016EFC41313135401246D
:10247500FF9295D296C296EF25E0FF0E80E4C297B3
:03248500D2AF22B1
:1022F100A907AB05AA047F01122435C2AFC295C25A
:1023010096C297D294D2973094FDD295D296C29626
:10231100C295D296C296D295D296C296E4FDEDC3ED
:1023210094085016E9C4131313540124FF9295D253
:1023310096C296E925E0F90D80E4E4FDEDC3941021
:102341005019EAC4131313540124FF9295D296C273
:1023510096EB25E0FBEA33FA0D80E1C297D2AFE4B8
:05236100FF12243522EB
:1021F700A907C2AFE4FFEFC3940A5045C295C29640
:10220700C297D294D2973094FDC297D297D295D2E3
:1022170096C296D296C296C295D296C296E4FDED24
:10222700C394085016E9C4131313540124FF92955D
:10223700D296C296E925E0F90D80E43094080F8024
:10224700B57E007F0022E4FDEDC394105017EB2507
:10225700E0FBEA33FAD296C296A294E433FFE4EFA6
:0E22670042030D80E3C297D2AFAF03AE022256
:1025ED00C2AF7580FFC2A0D2A1D2A2AF80C2A2D2CB
:0A25FD00AFEFC41313135401FF22C3
:10260700AE071225EDEF70FAC2AFC2A1C2A08E804D
:07261700D2A2C2A2D2AF2241
:10000E007F381226077F061226077F0C1226077FDF
:05001E0001122607227B
:1024D8001510A810A6071225EDEF70FAC2A1C2A028
:1024E800A810E624F9601114600924FE700F7580A5
:1024F800C08011758002800C7580018007D2A0A869
:0F25080010E6F580D2A2C2A27E007F000510224D
:100DDB00151015101510A810A60308A60208A601D9
:100DEB00E51024F3F510240D2403F9E433FAE51090
:100DFB00240AF8760008A60208A601E510240DF8CF
:100E0B008603080806E618860270010614F9121309
:100E1B00A3A810F66425601DA810E67006FE7F01DE
:100E2B000210EDA810E6FF1224D8EF4E60CD7E0025
:100E3B007F010210EDE510240DF88603080806E685
:100E4B0018860270010614F91213A3A810F6249C3D
:100E5B007003020FD6147003020EF324F670030214
:100E6B000FD624FC603224107019E510240AF88682
:100E7B0003080806E618860270010614F91213A37C
:100E8B00A810F6A810E6FF1224D8EF4E7003020E3E
:100E9B00067E007F010210EDE510240AF886030898
:100EAB0008E6F92403F618E6FA3400F6121580A8C2
:100EBB001008A60308A60208A601A81008860308B6
:100ECB000806E618860270010614F91213A3A8107F
:100EDB00F67003020E06A810E6FF1224D8EF4E6040
:100EEB00D97E007F010210EDE5102408F87600088A
:100EFB00760AE5102404F87600087664E510240AD7
:100F0B00F88603080806E618860270010614F91223
:100F1B0013A3FFE5102406F8760008A607E51024B6
:100F2B0004F9D309E7940119E794004032E5102442
:100F3B0006F9E5102404F8E6FE08E6D30997EE1946
:100F4B0097401CE5102404F8C000E6FE08E6FF7C81
:100F5B00007D0A1213F0D000A60608A60780BEE596
:100F6B00102404F8E6FC08E6FDE5102406F8E6FE7E
:100F7B0008E6FF1213F0EF2430FF1224D8E51024FB
:100F8B0006F8C000E6FE08E6FFE5102404F8E6FCD0
:100F9B0008E6FD1213F0D000A60408A605E5102400
:100FAB0004F8C000E6FE08E6FFE5102408F8E6FCAE
:100FBB0008E6FD1213F0D000A60608A607E51024DC
:100FCB0004F909E719477097020E06E5102408F893
:100FDB00760008760AE5102404F87627087610E5E3
:100FEB0010240AF886030808E6F92402F618E6FA34
:100FFB003400F612147BFFE5102406F8A6F008A6C1
:10100B0007E5102404F9D309E7940119E79400408C
:10101B0032E5102406F9E5102404F8E6FE08E6D3C1
:10102B000997EE1997401CE5102404F8C000E6FE62
:10103B0008E6FF7C007D0A1213F0D000A60608A676
:10104B000780BEA810E6B46F12E5102404F909E777
:10105B006401194770057F301224D8A810E6B46FCD
:10106B0012E5102404F909E76401194770057F2E76
:10107B001224D8E5102404F8E6FC08E6FDE510245C
:10108B0006F8E6FE08E6FF1213F0EF2430FF1224F9
:10109B00D8E5102406F8C000E6FE08E6FFE51024AC
:1010AB0004F8E6FC08E6FD1213F0D000A60408A62F
:1010BB0005E5102404F8C000E6FE08E6FFE5102461
:1010CB0008F8E6FC08E6FD1213F0D000A60608A609
:1010DB0007E5102404F909E71947600302106602BB
:0910EB000E06E5102410F5102298
:1025B100D3EF9400EE94004014E4FDEDC394645015
:0E25C10005B2B40D80F5EF1F70011E80E322FD
:10227500B2B4E4FBEBC3940450367401A8030880A0
:1022850002C333D8FCF4F590E590440FFCF4601DCF
:102295007F147E001225B1ECB590047F0180027F8A
:1022A50000EF440F600AEC54F02BFC80030B80C454
:1022B5007590FFE4FBEBC39410501CEB900D7293EB
:1022C500B50411AC03E4F55AE558C394804002C245
:1022D50008AF04220B80DE20A70FE4F55AE558C3AA
:0C22E50094804002C2087F01227F10227A
:1025CF00122275EF64106007E55AC3940A40F112A6
:0E25DF002275EFB41007E55AC3940A40F222A9
:1020CF008B4D8A4E894F8D50E4F5511225CFAD07B8
:1020DF00EDB40C057E007F0122EDB40D19E551D34F
:1020EF00940040121551AB4DAA4EA94F85518275E0
:1020FF008300E41213BCEDC3940A5035E551C39528
:10210F0050502EED2430AB4DAA4EA94F85518275FC
:10211F0083001213BC0551AD51EDC395505012AB56
:10212F004DAA4EA94F8D82758300E41213BC0D800A
:10213F00E8AA4EA94F151015101510A810A64D0896
:10214F00A60208A6017BFF7A0A7969120DDB05103A
:08215F00051005100220DA2230
:1017D1008B488A49894A8C4B8D4C7F01122607150B
:1017E100101510A810A64B08A64CAB48AA49A94A47
:1017F100120DDB051005101225CF8F51EFB4100526
:101801007EFF7FFF22E551B40C05AE4BAF4C22E5C4
:10181100516407600302189AC3E54C954EE54D6487
:1018210080F8E54B6480985008054CE54C70020542
:101831004B15101510A810A64B08A64CAB48AA4989
:10184100A94A120DDB05100510122275EF6407700D
:10185100487FF47E011225B1122275EFB407EAC365
:10186100E54C954EE54D6480F8E54B648098500851
:10187100054CE54C7002054B15101510A810A64B30
:1018810008A64CAB48AA49A94A120DDB0510051060
:101891007FC87E001225B180BFE551640B60030251
:1018A10017DBD3E54C9550E54F6480F8E54B648038
:1018B100984008E54C154C7002154B15101510A8F1
:1018C10010A64B08A64CAB48AA49A94A120DDB0544
:1018D100100510122275EF640B60030217DB7FF411
:1018E1007E011225B1122275EFB40BE7D3E54C95B9
:1018F10050E54F6480F8E54B6480984008E54C154D
:101901004C7002154B15101510A810A64B08A64CCB
:10191100AB48AA49A94A120DDB051005107FC87E04
:07192100001225B180BF2276
:1023CF00E4F54CE54CC39404500B7448254CF8E4E9
:1023DF00F6054C80EE7BFF7A0A7979120DDB7B00D4
:1023EF007A0079487D031220CFE4F54CE54CC39475
:1023FF00035030E54C2425FF1221F77448254CF883
:10240F00E66F7001EE60187BFF7A0A798A120DDB96
:10241F001225CF7BFF7A0A799B120DDB7F002205F5
:06242F004C80C97F012270
:102000001223CFEF7003FEFF22E4F539E539C394C4
:10201000074003022094E53975F003A42482F58279
:10202000E4340DF583E493FB740193FA740293F99D
:10203000C003C002C001E5392407FF1221F7AC0636
:10204000AD07E53925E02497F582E4340DF583E406
:1020500093F54D740193F54EE53925E024A5F582FD
:10206000E4340DF583E493F54F740193F550D001FA
:10207000D002D0031217D1E53925E0243AF8EEF664
:1020800008EFF6B4FF09EEB4FF057E007F002205DD
:102090003902200C7BFF7A0B796E120DDB1225CFF3
:1020A000EF64077024F539E539C394075018E53912
:1020B00025E0243AF8E6FC08E6FDE5392407FF129E
:0F20C00022F1053980E1121C867F0112260722CA
:101E4E001223CFEF7003FEFF22E4F539E539C39478
:101E5E00044003021EE2E53975F003A424B3F582B3
:101E6E00E4340DF583E493FB740193FA740293F951
:101E7E00C003C002C001E539240EFF1221F7AC06E3
:101E8E00AD07E53925E024BFF582E4340DF583E492
:101E9E0093F54D740193F54EE53925E024C7F5828F
:101EAE00E4340DF583E493F54F740193F550D001AE
:101EBE00D002D0031217D1E53925E0243AF8EEF618
:101ECE0008EFF6B4FF09EEB4FF057E007F00220591
:101EDE0039021E5A7BFF7A0B796E120DDB1225CF5B
:101EEE00EF6407702F7F01122435E4F539E539C30D
:101EFE0094045018E53925E0243AF8E6FC08E6FD8E
:101F0E00E539240EFF1222F1053980E1E4FF122497
:0A1F1E0035121C867F0112260722EF
:10236600D20A1223CFEF7003FEFF227F121221F74B
:102376008F397F121221F7AC06AD077BFF7A0C79F5
:1023860009754D00754EFFE4F54FF5501217D18FC4
:1023960039EFB4FF07E4B4FF03FEFF227BFF7A0B9D
:1023A600796E120DDB1225CFEFB407177F011224C9
:1023B60035E539FD7C007F121222F1E4FF12243547
:0923C600121C867F011226072279
:10261E00E558A807088002C313D8FC30E0047F30C9
:05262E0080027F312253
:101F2800E4F539D20A7F01122607D206300A15E5F0
:101F380039041510A810F67BFF7A0C7922120DDBF4
:101F48000510C20AE5392410FF12258C151015104A
:101F5800A810A60608A607AF3912261EEF3395E08B
:101F6800FE900D3F75F003EF121574EE75F003A4A3
:101F78002583F583E493FB740193FA740293151097
:101F880015101510A810A60308A60208F67BFF7AFC
:101F98000C792A120DDBE5102405F5107FC87E00A8
:101FA8001225B1122275EF602924F5601624FB6012
:101FB8003124097021E5390475F0068485F039D299
:101FC8000A801FE539700575390580021539D20A6E
:101FD8008010D20A800CC2067F011226077E007F7D
:101FE8000022E55AD3940A5003021F347F011226B7
:081FF80007C2067E007F0022F3
:101D7100E4F539F53BB2B4E53B25E025E02444F533
:101D81003A04FF1221F715101510A810A60608A68F
:101D910007AF3A1221F715101510A810A60608A6CC
:101DA100071510A810A63B7BFF7A0C793A120DDBC0
:101DB100E5102405F510E53A2403FF1221F715106B
:101DC1001510A810A60608A607E53A2402FF12215D
:101DD100F715101510A810A60608A6077BFF7A0CA8
:101DE100794A120DDBE5102404F5101225CFEF24FA
:101DF100F5601224FD601D24077048E53B04541F63
:101E0100F53B021D76E53B7006753B1F021D7615FD
:101E11003B021D767BFF7A0C7955120DDB1225CF23
:101E2100EFB40C19E4F53BE53BC39480500FE53B5F
:101E31002444FFE4FDFC1222F1053B80EAE4F53B7A
:0D1E4100021D767F011226077E007F002221
:1015ED00E4F539F53BE539640C6064E53B75F003D2
:1015FD00A424D5F582E4340DF583E493FB740193B3
:10160D00FA740293151015101510A810A60308A64C
:10161D000208F67BFF7A0C798A120DDB0510051096
:10162D0005101225CF8F39E539F46005E539B40D74
:10163D00057E007F0022E53964076005E539B40BAE
:10164D00A4E53B7005753B01809BE4F53B8096E579
:10165D003B600302175AD205E55AC3943C4003027E
:10166D001748122275EF640D70030217481510A864
:10167D0010A6577BFF7A0C798F120DDB0510E4FF56
:10168D0012261E1510A810A6077BFF7A0C799A1248
:10169D000DDB05107F0112261E1510A810A6077B65
:1016AD00FF7A0C799E120DDB05107F0212261E1596
:1016BD0010A810A6077BFF7A0C799E120DDB051082
:1016CD007F0312261E1510A810A6077BFF7A0C7932
:1016DD009E120DDB05107F0412261E1510A810A6F4
:1016ED00077BFF7A0C799E120DDB05107F05122604
:1016FD001E1510A810A6077BFF7A0C79A1120DDB21
:10170D0005107F0812258CEF2414FFE43E151015EB
:10171D0010A810F608A60715101510A810A6630836
:10172D00A6647BFF7A0C79A6120DDBE5102404F577
:10173D00107FF47E011225B10216657F0D1221F77F
:10174D008F607F111221F78F54C2058071E4F53B34
:10175D00E53BC394105067753910E53B242DFF12FE
:10176D0021F78F3AE539640C603E1510A810A63AA2
:10177D001510A810A63B7BFF7A0C79B4120DDB0572
:10178D001005101225CF8F39E53964106005E53944
:0F179D00B40D057E007F0022E539B40702053A3E
:1017AC00E539B40BC0153A80BCE53B242DFFE53A76
:1017BC00FD7C001222F17F01122607053B80927FEF
:0517CC000112260722B6
:101B8F007F0112243575391EC3E539648094804076
:101B9F0074E53925E025E02444FF1221F7AC06ADAA
:101BAF0007E53925E025E02448FF1222F1E5392524
:101BBF00E025E02445FF1221F7AC06AD07E53925F6
:101BCF00E025E02449FF1222F1E53925E025E02444
:101BDF0046FF1221F7AC06AD07E53925E025E024D5
:101BEF004AFF1222F1E53925E025E02447FF1221B3
:101BFF00F7AC06AD07E53925E025E0244BFF1222AF
:101C0F00F115398083AD68AC677F441222F1AD6A5C
:101C1F00AC697F451222F1E47BA07A8CF9F8AF5EB4
:101C2F00AE5DAD5CAC5B1214E2AD07AC067F461245
:101C3F0022F1E47BA07A8CF9F8AF6EAE6DAD6CAC8F
:101C4F006B1214E2AD07AC067F471222F1E4FF12CC
:101C5F002435E4F56EF56DF56CF56BF55EF55DF518
:101C6F005CF55BF567F568756927756A107BFF7A18
:071C7F000C79C0122566225A
:10254000E4FEEEC39408501DEFA2E713FF30D7045A
:10255000C2A68002D2A6D2A5C2A5C2A5C2A5C2A506
:06256000D2A50E80DD2271
:1010F400121A74E4F56EF56DF56CF56BF55EF55D3D
:10110400F55CF55BF567F568756927756A10C205C6
:101114007BFF7A0C79D01225667F647E001225B19C
:101124007BFF7A0C79D61225667F647E001225B186
:101134007BFF7A0C79E0122566800B122275EF642E
:1011440010700302134712000E435610855680D2C6
:10115400A3C2A3D203E55AC3940A40030212FA15A8
:10116400101510A810A66308A6647BFF7A0C79EE0C
:10117400120DDB05100510122275EF1215A012D600
:101184000011A401123A0212F40311EC04128805AE
:1011940012E80612DC0812E20912EE0A00001159E4
:1011A400122275EF640160F87BFF7A0A799B120DB5
:1011B400DB122275EFB41028E55AC3940A502115A6
:1011C400101510A810A66308A6647BFF7A0C79EEAC
:1011D400120DDB051005107FF47E011225B180D1BC
:1011E4007F01122607021159122275EF640460F878
:1011F4007BFF7A0A799B120DDB122275EF64107063
:101204002DE55AC3940A50267F0912258C15101512
:1012140010A810A60608A6077BFF7A0D790E120DFA
:10122400DB051005107FF47E011225B180CB7F0110
:10123400122607021159122275EF640260F87BFF2F
:101244007A0A799B120DDB122275EF6410702DE57A
:101254005AC3940A50267F0712258C15101510A81E
:1012640010A60608A6077BFF7A0D792D120DDB0563
:101274001005107FF47E011225B180CB7F01122668
:1012840007021159122275EF640560F87BFF7A0A90
:10129400799B120DDB122275EF6410702DE55AC391
:1012A400940A50267F0A12258C15101510A810A632
:1012B4000608A6077BFF7A0D794A120DDB05100597
:0112C4001019
:1012C5007FF47E011225B180CB7F01122607021122
:1012D50059121F280211591220000211591215ED39
:1012E500021159122366021159121E4E021159128A
:1012F5001D710211597F081226075356EF85568036
:10130500C203D2A3C2A37FFF1225407FFF1225404F
:101315007FFF1225407FFF1225407FFF1225407F6A
:10132500FF1225407FFF1225407FFF1225407FFFDA
:101335001225407FFF1225407FFF1225407FFF12B7
:10134500254030014AAD68AC677F441222F1AD6A91
:10135500AC697F451222F1E47BA07A8CF9F8AF5E87
:10136500AE5DAD5CAC5B1214E2AD07AC067F461218
:1013750022F1E47BA07A8CF9F8AF6EAE6DAD6CAC62
:101385006B1214E2AD07AC067F471222F1C20120B1
:0E139500000302113F121B8FC20002113F2203
:030023000224882C
:10248800C0E0C0D075D00830983AC298E599B4AA8F
:1024980005755900C20920092B74112559F8A69908
:1024A8000559E559C39406401B7911E778122608A7
:1024B800260826082608667008D207F559D209802A
:1024C80003755900309904C299D204D0D0D0E032B3
:080003003004FD8F99C20422B4
:102566008B3A8A3B893CAB3AAA3BA93C1213A3603F
:10257600141213A3FF1200037401253CF53CE43545
:062586003BF53B80E12261
:10251700AE078C318D327FAA1200037DAAAF061257
:102527000003EE2DFDAF321200032532FDAF31124D
:0925370000032531FF120003220C
:03000000022633A2
:0C263300787FE4F6D8FD75816F0210F48A
:1013A300BB010689828A83E0225002E722BBFE0248
:0913B300E32289828A83E493227B
:1013BC00F8BB010DE58229F582E5833AF583E8F067
:1013CC00225006E92582C8F622BBFE05E92582C813
:0213DC00F222FB
:1013DE00EF8DF0A4A8F0CF8CF0A428CE8DF0A42E23
:0213EE00FE22DD
:1013F000BC000BBE0029EF8DF084FFADF022E4CCE1
:10140000F875F008EF2FFFEE33FEEC33FCEE9DECA9
:10141000984005FCEE9DFE0FD5F0E9E4CEFD22EDEF
:10142000F8F5F0EE8420D21CFEADF075F008EF2F39
:10143000FFED33FD4007985006D5F0F222C398FD2A
:051440000FD5F0EA22C7
:10144500C2D5EC30E709B2D5E4C39DFDE49CFCEEC2
:1014550030E715B2D5E4C39FFFE49EFE1213F0C337
:10146500E49DFDE49CFC80031213F030D507C3E432
:061475009FFFE49EFE2231
:10147B00BB010A89828A83E0F5F0A3E0225006873C
:10148B00F009E71922BBFE07E3F5F009E3192289FE
:0B149B00828A83E493F5F07401932231
:1014A60075F008758200EF2FFFEE33FECD33CDCCFD
:1014B60033CCC58233C5829BED9AEC99E582984080
:1014C6000CF582EE9BFEED9AFDEC99FC0FD5F0D65D
:1014D600E4CEFBE4CDFAE4CCF9A88222B800C1B987
:1014E6000059BA002DEC8BF084CFCECDFCE5F0CBC5
:1014F600F97818EF2FFFEE33FEED33FDEC33FCEBFE
:1015060033FB10D703994004EB99FB0FD8E5E4F9B8
:10151600FA227818EF2FFFEE33FEED33FDEC33FCA5
:10152600C933C910D7059BE99A4007EC9BFCE99A99
:10153600F90FD8E0E4C9FAE4CCFB2275F010EF2FDE
:10154600FFEE33FEED33FDCC33CCC833C810D707DE
:101556009BEC9AE899400AED9BFDEC9AFCE899F819
:0E1566000FD5F0DAE4CDFBE4CCFAE4C8F922AC
:0C157400A42582F582E5F03583F5832282
:10158000BB010789828A830215CF5005E9F802154D
:10159000C6BBFE05E9F80215D889828A830215E1E7
:1015A000D083D082F8E4937012740193700DA3A3DA
:1015B00093F8740193F5828883E4737402936860EE
:0615C000EFA3A3A380DFEE
:0915C600E6FB08E6FA08E6F9224A
:0915CF00E0FBA3E0FAA3E0F9221D
:0915D800E2FB08E2FA08E2F92244
:0C15E100E493FB740193FA740293F92266
:00000001FF
