:100A5F00072020204A52542D34382D313030000ACF
:100A6F0053797374656D20496E69742E2E2E0007AD
:100A7F004550524F4D204552524F52210A4C6F61F3
:100A8F00642044656661756C742E2E2E000A2573E2
:100A9F002020202020202020202020200007456E0D
:100AAF007465722050617373776F72643A000850E7
:100ABF00617373776F7264204572726F72210007D2
:100ACF0000084D4158494D554D20424F4F53540A40
:100ADF00564F4C5441474520256F56200008424F32
:100AEF004F53542054415045522041540A564F4CB5
:100AFF005441474520256F56200008464C4F41541E
:100B0F00204D4158494D554D0A564F4C544147457C
:100B1F0020256F56200008464C4F4154204D494E1A
:100B2F00494D554D0A564F4C5441474520256F5658
:100B3F0020000852455455524E20544F20424F4FDB
:100B4F0053540A4D4F44452042454C4F5720256F73
:100B5F005620000854454D5045524154555245209A
:100B6F00434F4D500A4154202D25646D562FDF43BE
:100B7F002F43454C4C2000085354415445204348C3
:100B8F00414E47450A44454C415920256420532086
:100B9F0020000753415645204348414E47453F0AE1
:100BAF00494E433D594553204F544845523D4E4FB2
:100BBF0000084C4F57204241545445525920414C44
:100BCF002D0A41524D204F4E20415420256F562063
:100BDF0000085245434F4E4E454354204C4F41441D
:100BEF000A41424F564520256F5620000848494775
:100BFF0048204241545445525920414C2D0A4152EC
:100C0F004D204F4E20415420256F5620000844455B
:100C1F004C4159204245464F52450A444953434F90
:100C2F004E4E45435420256420532020000853691D
:100C3F0074204E756D6265723A0A25642020004F4C
:100C4F004646004F4E000842414E4B256520256F0A
:100C5F00566F63202020000A5B25735D2020202023
:100C6F0020256F412020000744256520483A256F35
:100C7F00204C3A256F56000A433A256420443A2502
:100C8F00640007436C6561722048697374726F79F1
:100C9F00210A41726520796F7520737572653F0067
:100CAF0054657374204D6F6465004D6574657220D3
:100CBF0041646A7573740007257320000854455307
:100CCF005420413A256500202563002563002563E4
:100CDF002020000A423A20256F5620543A256420DE
:100CEF000007494E2025650A25652020004154261E
:100CFF004645305630583053303D310D0041542663
:100D0F00460D0041544530563058300D0041545374
:100D1F00303D325331303D31300D00084241545493
:100D2F0045525920564F4C544147450A2020202008
:100D3F00202020202020256F5620000843484152B4
:100D4F0047452043555252454E540A20202020201B
:100D5F002020202020256F412000084C4F414420A7
:100D6F00564F4C544147450A202020202020202058
:100D7F002020256F562000084C4F414420435552E8
:100D8F0052454E540A2020202020202020202025AC
:100D9F006F412000039F250D9949411F0109FFE075
:100DAF00D0B070E1D1B171E2D2B272E3D3B373FFBD
:100DBF000AD0FF0AECFF0B09FF0B25FF0B41FF0BBE
:100DCF0062FF0B8602BC02BC02BC02BC02BC001458
:100DDF0001680190019001900190019000000006C0
:100DEF00FF0BC0FF0BE0FF0BFBFF0C1C02BC02BC98
:100DFF0002D000FA0190019001900001FF0C4EFF0C
:080E0F000C52FF0CAFFF0CB9FF
:101D9E007F08122237AC06AD077F011223317F0870
:101DAE00122237EF7802C333CE33CED8F9FDAC060C
:101DBE00C004C0057F07122237D0E02FFFD0E03ECF
:101DCE00FE7C007D0512142CAC06AD077F0212239B
:101DDE00317F081222377C007D0312141AC006C010
:101DEE00077F07122237EF25E0FDEE33FCD0E02D02
:101DFE00FFD0E03CFE7C007D0512142CAC06AD0736
:101E0E007F031223317F071222377C007D031214C9
:101E1E001AC006C0077F08122237EF25E0FDEE3309
:101E2E00FCD0E02DFFD0E03CFE7C007D0512142C92
:101E3E00AC06AD077F041223317F07122237EF78ED
:101E4E0002C333CE33CED8F9FDAC06C004C0057F35
:101E5E0008122237D0E02FFFD0E03EFE7C007D0539
:101E6E0012142CAC06AD077F051223317F07122208
:0B1E7E0037AC06AD077F0612233122AF
:101A9500C2B6758010755810755610D2A4D2A3C25F
:101AA500A4C2A3E4F555D208F539E539C3940C5021
:101AB500097F03122580053980F07D007C047F3E77
:101AC500122331D20212000E7BFF7A0A795F120EC1
:101AD500177BFF7A0A796E120E177F407E1F12253B
:101AE500F1D204E4F559FF122237EF64464E700334
:101AF500021B9D7BFF7A0A797E120E1712260F7D37
:101B0500587C027F071223317D307C027F08122327
:101B1500317D307C027F091223317D1C7C027F0AD6
:101B25001223317D3C7C007F0D1223317DF07C0139
:101B35007F0B122331E4FDFC7F0C1223317DC07C29
:101B4500017F0E1223317D807C027F101223317DAF
:101B5500007C027F0F1223317DC87C007F11122388
:101B650031753925E539C3942D500D7D387C00AF8D
:101B750039122331053980EC75392DE539C3943D8A
:101B8500500D7D807C00AF39122331053980EC7D05
:101B9500467C00E4FF122331121D9E75A81275B80C
:101BA50010759870758921758DFDE4F587D28ED2F3
:041BB5008CD2AF22FD
:1021A700E55654F04FF556F580D2A3C2A3E4F537B0
:1021B700F538F533E533C394FF5004053380F5E470
:1021C700F533E533C394105053E4FCFDC2B7D2B5E1
:1021D700C2B230B5FDD2B7C2B7D2B7A2B5E4334267
:1021E70005E4C2B7F534E534C3940B5019D2B7ED03
:1021F70025E0FFEC33FEA2B5E433FBEEFCEF4BFD2D
:10220700C2B7053480E0D2B5D2B7D2B2ED2538F5E2
:1022170038EC3537F537B2B4053380A6E537C4F85F
:1022270054F0C868FCE538C4540F48FDFFAE0422DB
:10196400AA07EA1215DC19B60119B60219B6031949
:10197400B60419B60519B606199E0719DD081A1713
:10198400091A0A0A1A24101A30111A3C121A481396
:101994001A54141A601500001A6CAF021221A7EF32
:1019A4007802C333CE33CED8F9FF7C007D05121400
:1019B400812243583F855880D2A4C2A4AF02122189
:1019C400A78E318F32E5327802C333CE33CED8F9C5
:1019D400FF7C007D0512148122AF021221A7EF249F
:1019E4008CFFEE34F4FE7C007D0A1214818E318F5C
:1019F40032D3E5329464E531940040057E007F00E3
:101A040022AE31AF3222AF021221A77C007D041234
:101A1400148122AF021221A77C007D0212148122BC
:101A2400E558443F54FEF5587A098041E558443F4F
:101A340054FDF5587A098035E558443F54FBF55870
:101A44007A098029E558443F54F7F5587A09801DEE
:101A5400E558443F54EFF5587A098011E558443F5E
:101A640054DFF5587A0980057E007F00228558806E
:101A7400D2A4C2A4EAB4090CFF1221A77C007D02FF
:101A840012148122AF021221A77C007D041214815A
:011A9400222F
:1025CC008F3C853C6FE4F53CE53CC394FF5015E52E
:1025DC006FB4FF05AE65AF66227F147E001225F145
:0525EC00053C80E42223
:03000B00020026CA
:10002600C0E0C0F0C083C082C0D075D000C000C0A0
:1000360001C002C003C004C005C006C007758C4CD1
:10004600758A01E56FF4600CAF6F1219648E658FC7
:1000560066756FFF30070312058DAF520552EF64C8
:100066001360030204ECB2B4F552200303020254F7
:100076007F0A1219648E228F237C007D0A12142CAB
:1000860074A32DF582740D3CF583E493F524AE221A
:10009600AF237C007D0A12142C8E228F237C007DD8
:1000A6000A12142C74A32DF582740D3CF583E49387
:1000B60014F525AE22AF237C007D0A12142C8E2265
:1000C6008F237C007D0A12142C74A32DF582740DE7
:1000D6003CF583E493F526AE22AF237C007D0A121D
:1000E600142C8E228F237C007D0A12142C74A32DCF
:1000F600F582740D3CF583E493F5278563228564C8
:1001060023AE22AF237C007D0A12142C74A32DF596
:1001160082740D3CF583E493F528AE22AF237C0070
:100126007D0A12142C8E228F237C007D0A12142C39
:1001360074A32DF582740D3CF583E49314F529AE72
:1001460022AF237C007D0A12142C8E228F237C0082
:100156007D0A12142C74A32DF582740D3CF583E4EC
:1001660093F52AAE22AF237C007D0A12142C8E2230
:100176008F237C007D0A12142C74A32DF582740D36
:100186003CF583E493F52B7F091219648E228F23A5
:100196007C007D0A12142C74A32DF582740D3CF597
:1001A60083E493F52CAE22AF237C007D0A12142C37
:1001B6008E228F237C007D0A12142C74A32DF582C7
:1001C600740D3CF583E49314F52DAE22AF237C0029
:1001D6007D0A12142C8E228F237C007D0A12142C89
:1001E60074A32DF582740D3CF583E493F52EAE22AF
:1001F600AF237C007D0A12142C8E228F237C007D77
:100206000A12142C74A32DF582740D3CF583E49325
:10021600F52FAF24122580AF25122580AF26122593
:0302260080AF277F
:10022900122580AF28122580AF29122580AF2A1206
:100239002580AF2B122580AF2C122580AF2D1225DA
:1002490080AF2E122580AF2F122580E4FF1219648A
:100259008E638F647F0C1222377C007D1812141A6A
:10026900C006C0077F08121964AC06AD07D007D0D5
:100279000612141A7C007D6412142CC3E5649FF5E0
:1002890023E5639EF522E557C3940740030203184B
:10029900E55714FF122237C3E5239FE5229E502814
:1002A900E55714B5530CE56060030203A71557021F
:1002B90003A7E55714F5533005047F0280057F0D28
:1002C9001222378F600203A7AF57122237C3E523E3
:1002D9009FE5229E4033E5572401FFE433FEE553B1
:1002E900B50710E4B5060CE56060030203A70557DE
:1002F9000203A7E55704F5533005047F0280057F03
:100309000D1222378F600203A77553000203A7E578
:1003190057B40D077F0B12223780057F0A12223747
:10032900C3E5239FE5229E503BE5572401FFE433B3
:10033900FEE553B50719E4B50615E5607060E557A4
:10034900B40D047F018004E55704FF8F57804FE502
:100359005704F5533005047F0280057F0D122237BB
:100369008F60803A7F09122237D3E5239FE5229EC9
:100379004029E55764076023E55714B55308E5603C
:10038900701C15578018E55714F5533005047F0282
:1003990080057F0D1222378F608003755300D3E5E6
:1003A900239568E52295674006852267852368C3FA
:1003B900E523956AE5229569500685226985236AB0
:1003C9007F09121964EE3395E0FDFCE55E2FF55EB9
:1003D900E55D3EF55DE55C3DF55CE55B3CF55B7F28
:1003E9000A121964EE3395E0FDFCE56E2FF56EE512
:0603F9006D3EF56DE56CA0
:1003FF003DF56CE56B3CF56BE555705C7F1012229B
:10040F0037D3E5239FE5229E401AE554600302048B
:10041F00B74356A0755501E555FD7C007FFE1225AB
:10042F00570204B77F0E122237C3E5239FE5229EA2
:10043F005016E55470724356C0755502E555FD7C54
:10044F00007FFE12255780603005047F0280057FF4
:10045F00111222378F548050E5556401702A7F1096
:10046F00122237EF24D8FFEE34FFFEC3E5239FE5BA
:10047F00229E503453565F755500D208E555FD7CCA
:10048F00007FFE12255780207F0F122237D3E523DE
:10049F009FE5229E401253563F755500D208E555F1
:1004AF00FD7C007FFE12255715601554AF5F055F69
:1004BF00EF643B7028F55F055AE555FD7C007FFE24
:1004CF00122557AF620562EFB43B12756200D2017D
:1004DF00AF610561EFB41705756100D200AF80758C
:1004EF0022008F23855680D2A3C2A3E55714B40DE3
:1004FF00005051900509F828287302053002053580
:10050F0002053A02053F02054402054902054E0263
:10051F00054902054402053F02053A020535020569
:10052F00307558008021755820801C755830801701
:10053F00755838801275583C800D75583E80087577
:10054F00583F8003755701E555600B300805435838
:10055F0080800353587F200607855880D2A4C2A4F9
:10056F00852380D007D006D005D004D003D002D089
:0E057F0001D000D0D0D082D083D0F0D0E032B6
:10058D007812E66401600302086E08E61215DC06B7
:10059D00090006150106260206370306480406590A
:1005AD0005066A06067B07068C0806A00906AD0A35
:1005BD0006BA0E06CB0F06DC1006ED1106FE12076D
:1005CD000F13072014073115074220075321076425
:1005DD002207752307862407972507A82607B9271D
:1005ED0007CA2807DB2907EC2A07FD2B080E2C0864
:1005FD001F2D08302E08414300000862AD64AC6326
:10060D00E4FF122557020A5C7F07121964AC06AD90
:10061D00077F01122557020A5C7F01121964AC068F
:10062D00AD077F02122557020A5C7F02121964ACD6
:10063D0006AD077F03122557020A5C7F031219646A
:10064D00AC06AD077F04122557020A5C7F04121910
:10065D0064AC06AD077F05122557020A5C7F0512B3
:10066D001964AC06AD077F06122557020A5C7F069A
:10067D00121964AC06AD077F07122557020A5C7F7D
:10068D0008121964EF2414FDE43EFC7F081225576F
:10069D00020A5CE557FD7C007F09122557020A5CB2
:1006AD00E555FD7C007F0A122557020A5C7F0A1270
:1006BD001964AC06AD077F0E122557020A5C7F093F
:1006CD00121964AC06AD077F0F122557020A5C7F25
:1006DD0010121964AC06AD077F10122557020A5C83
:1006ED007F11121964AC06AD077F11122557020A4E
:1006FD005C7F12121964AC06AD077F1212255702EA
:10070D000A5C7F13121964AC06AD077F13122557CF
:10071D00020A5C7F14121964AC06AD077F14122512
:10072D0057020A5C7F15121964AC06AD077F1512CE
:10073D002557020A5C7F07122237AC06AD077F20D2
:10074D00122557020A5C7F08122237AC06AD077FCF
:10075D0021122557020A5C7F09122237AC06AD071C
:10076D007F22122557020A5C7F0A122237AC06AD92
:10077D00077F23122557020A5C7F0B122237AC0626
:10078D00AD077F24122557020A5C7F0C122237AC6D
:10079D0006AD077F25122557020A5C7F0D12223701
:1007AD00AC06AD077F26122557020A5C7F0E12227A
:1007BD0037AC06AD077F27122557020A5C7F0F1253
:1007CD002237AC06AD077F28122557020A5C7F1031
:0C07DD00122237AC06AD077F2912255709
:1007E900020A5C7F11122237AC06AD077F2A122557
:1007F90057020A5C7F3E122237AC06AD077F2B12E7
:100809002557020A5C7F3F122237AC06AD077F2CC1
:10081900122557020A5C7F40122237AC06AD077FCA
:100829002D122557020A5C7F41122237AC06AD070B
:100839007F2E122557020A5C753044E530C394C4F3
:100849004003020A5CAF30122237AC06AD07AF3065
:10085900122557B2B4053080E27DFF7C007FFF127C
:100869002557020A5C7813E624E0B40B0040030222
:100879000A32900882F82828730208A30208CA02DB
:1008890008F102091502093902095D020981020903
:10089900A50209C90209EC020A0F7814E6FE08E666
:1008A9007C002400FDEC3EFC7F071223317F0712F8
:1008B9002237AC06AD077F20122557121D9E020A6A
:1008C9005C7814E6FE08E67C002400FDEC3EFC7F23
:1008D900081223317F08122237AC06AD077F211297
:1008E9002557121D9E020A5C7814E6FE08E67C0074
:1008F9002400FDEC3EFC7F091223317F09122237C7
:10090900AC06AD077F22122557020A5C7814E6FE71
:1009190008E67C002400FDEC3EFC7F0A1223317FAF
:100929000A122237AC06AD077F23122557020A5C4B
:100939007814E6FE08E67C002400FDEC3EFC7F0B03
:100949001223317F0B122237AC06AD077F24122503
:1009590057020A5C7814E6FE08E67C002400FDECE8
:100969003EFC7F0C1223317F0C122237AC06AD07F7
:100979007F25122557020A5C7814E6FE08E67C00FA
:100989002400FDEC3EFC7F0D1223317F0D1222372E
:10099900AC06AD077F26122557020A5C7814E6FEDD
:1009A90008E67C002400FDEC3EFC7F0E1223317F1B
:1009B9000E122237AC06AD077F27122557020A5CB3
:1009C9007814E6FE08E67C002400FDEC3EFC7F0F6F
:1009D9001223317F0F122237AC06AD077F2812256B
:1009E9005780707814E6FE08E67C002400FDEC3E92
:1009F900FC7F101223317F10122237AC06AD077F1E
:100A090029122557804D7814E6FE08E67C0024005B
:100A1900FDEC3EFC7F111223317F11122237AC0607
:100A2900AD077F2A122557802A7813E6FFC00708E9
:100A3900E6FE08E67C002400FDEC3EFCD00712230C
:100A4900317813E6FF122237AC06AD077813E6FFBB
:060A5900122557C207221E
:10247500C2AFC295C296C297D294D2973094FDD27C
:1024850095D296C296EF700CC295D296C296D29608
:10249500C296800CC295D296C296D296C2967FC03D
:1024A500E4FEEEC394085016EFC41313135401242D
:1024B500FF9295D296C296EF25E0FF0E80E4C29773
:0324C500D2AF2271
:10233100A907AB05AA047F01122475C2AFC295C2D9
:1023410096C297D294D2973094FDD295D296C296E6
:10235100C295D296C296D295D296C296E4FDEDC3AD
:1023610094085016E9C4131313540124FF9295D213
:1023710096C296E925E0F90D80E4E4FDEDC39410E1
:102381005019EAC4131313540124FF9295D296C233
:1023910096EB25E0FBEA33FA0D80E1C297D2AFE478
:0523A100FF122475226B
:10223700A907C2AFE4FFEFC3940A5045C295C296FF
:10224700C297D294D2973094FDC297D297D295D2A3
:1022570096C296D296C296C295D296C296E4FDEDE4
:10226700C394085016E9C4131313540124FF92951D
:10227700D296C296E925E0F90D80E43094080F80E4
:10228700B57E007F0022E4FDEDC394105017EB25C7
:10229700E0FBEA33FAD296C296A294E433FFE4EF66
:0E22A70042030D80E3C297D2AFAF03AE022216
:10262D00C2AF7580FFC2A0D2A1D2A2AF80C2A2D28A
:0A263D00AFEFC41313135401FF2282
:10264700AE0712262DEF70FAC2AFC2A1C2A08E80CC
:07265700D2A2C2A2D2AF2201
:10000E007F381226477F061226477F0C1226477F1F
:05001E0001122647223B
:102518001510A810A60712262DEF70FAC2A1C2A0A6
:10252800A810E624F9601114600924FE700F758064
:10253800C08011758002800C7580018007D2A0A828
:0F25480010E6F580D2A2C2A27E007F000510220D
:100E1700151015101510A810A60308A60208A6019C
:100E2700E51024F3F510240D2403F9E433FAE51053
:100E3700240AF8760008A60208A601E510240DF892
:100E47008603080806E618860270010614F91213CD
:100E5700DFA810F66425601DA810E67006FE7F0166
:100E6700021129A810E6FF122518EF4E60CD7E006B
:100E77007F01021129E510240DF88603080806E60C
:100E870018860270010614F91213DFA810F6249CC5
:100E97007003021012147003020F2F24F67003025E
:100EA700101224FC603224107019E510240AF88609
:100EB70003080806E618860270010614F91213DF04
:100EC700A810F6A810E6FF122518EF4E7003020EC1
:100ED700427E007F01021129E510240AF8860308E3
:100EE70008E6F92403F618E6FA3400F61215BCA84A
:100EF7001008A60308A60208A601A810088603087A
:100F07000806E618860270010614F91213DFA81006
:100F1700F67003020E42A810E6FF122518EF4E6086
:100F2700D97E007F01021129E5102408F876000810
:100F3700760AE5102404F87600087664E510240A9A
:100F4700F88603080806E618860270010614F912E7
:100F570013DFFFE5102406F8760008A607E510243E
:100F670004F9D309E7940119E794004032E5102406
:100F770006F9E5102404F8E6FE08E6D30997EE190A
:100F870097401CE5102404F8C000E6FE08E6FF7C45
:100F9700007D0A12142CD000A60608A60780BEE51D
:100FA700102404F8E6FC08E6FDE5102406F8E6FE42
:100FB70008E6FF12142CEF2430FF122518E5102441
:100FC70006F8C000E6FE08E6FFE5102404F8E6FC94
:100FD70008E6FD12142CD000A60408A605E5102487
:100FE70004F8C000E6FE08E6FFE5102408F8E6FC72
:100FF70008E6FD12142CD000A60608A607E5102463
:1010070004F909E719477097020E42E5102408F81A
:10101700760008760AE5102404F87627087610E5A6
:1010270010240AF886030808E6F92402F618E6FAF7
:101037003400F61214B7FFE5102406F8A6F008A648
:1010470007E5102404F9D309E7940119E794004050
:1010570032E5102406F9E5102404F8E6FE08E6D385
:101067000997EE1997401CE5102404F8C000E6FE26
:1010770008E6FF7C007D0A12142CD000A60608A6FD
:101087000780BEA810E6B46F12E5102404F909E73B
:101097006401194770057F30122518A810E6B46F50
:1010A70012E5102404F909E76401194770057F2E3A
:1010B700122518E5102404F8E6FC08E6FDE51024DF
:1010C70006F8E6FE08E6FF12142CEF2430FF12257F
:1010D70018E5102406F8C000E6FE08E6FFE5102430
:1010E70004F8E6FC08E6FD12142CD000A60408A6B6
:1010F70005E5102404F8C000E6FE08E6FFE5102425
:1011070008F8E6FC08E6FD12142CD000A60608A68F
:1011170007E5102404F909E7194760030210A20242
:091127000E42E5102410F510221F
:1025F100D3EF9400EE94004014E4FDEDC3946450D5
:0E26010005B2B40D80F5EF1F70011E80E322BC
:1022B500B2B4E4FBEBC3940450367401A803088060
:1022C50002C333D8FCF4F590E590440FFCF4601D8F
:1022D5007F147E001225F1ECB590047F0180027F0A
:1022E50000EF440F600AEC54F02BFC80030B80C414
:1022F5007590FFE4FBEBC39410501CEB900DAE936F
:10230500B50411AC03E4F55AE558C394804002C204
:1023150008AF04220B80DE20A70FE4F55AE558C369
:0C23250094804002C2087F01227F102239
:10260F001222B5EF64106007E55AC3940A40F11225
:0E261F0022B5EFB41007E55AC3940A40F22228
:10210F008B4D8A4E894F8D50E4F55112260FAD0736
:10211F00EDB40C057E007F0122EDB40D19E551D30E
:10212F00940040121551AB4DAA4EA94F855182759F
:10213F008300E41213F8EDC3940A5035E551C395AB
:10214F0050502EED2430AB4DAA4EA94F85518275BC
:10215F0083001213F80551AD51EDC395505012ABDA
:10216F004DAA4EA94F8D82758300E41213F80D808E
:10217F00E8AA4EA94F151015101510A810A64D0856
:10218F00A60208A6017BFF7A0A799C120E1705108A
:08219F000510051002211A22AF
:10180D008B488A49894A8C4B8D4C7F01122647158E
:10181D00101510A810A64B08A64CAB48AA49A94A0A
:10182D00120E170510051012260F8F51EFB410056B
:10183D007EFF7FFF22E551B40C05AE4BAF4C22E588
:10184D0051640760030218D6C3E54C954EE54D640F
:10185D0080F8E54B6480985008054CE54C70020506
:10186D004B15101510A810A64B08A64CAB48AA494D
:10187D00A94A120E17051005101222B5EF64077054
:10188D00487FF47E011225F11222B5EFB407EAC3A9
:10189D00E54C954EE54D6480F8E54B648098500815
:1018AD00054CE54C7002054B15101510A810A64BF4
:1018BD0008A64CAB48AA49A94A120E1705100510E7
:1018CD007FC87E001225F180BFE551640B600302D5
:1018DD001817D3E54C9550E54F6480F8E54B6480BF
:1018ED00984008E54C154C7002154B15101510A8B5
:1018FD0010A64B08A64CAB48AA49A94A120E1705CB
:10190D001005101222B5EF640B60030218177FF457
:10191D007E011225F11222B5EFB40BE7D3E54C95FC
:10192D0050E54F6480F8E54B6480984008E54C1510
:10193D004C7002154B15101510A810A64B08A64C8F
:10194D00AB48AA49A94A120E17051005107FC87E8B
:07195D00001225F180BF22FA
:10240F00E4F54CE54CC39404500B7448254CF8E4A8
:10241F00F6054C80EE7BFF7A0A79AC120E177B0023
:10242F007A0079487D0312210FE4F54CE54CC394F3
:10243F00035030E54C2425FF1222377448254CF801
:10244F00E66F7001EE60187BFF7A0A79BD120E17E6
:10245F0012260F7BFF7A0A79CE120E177F00220504
:06246F004C80C97F012230
:1020400012240FEF7003FEFF22E4F539E539C39443
:102050000740030220D4E53975F003A424BEF582BD
:10206000E4340DF583E493FB740193FA740293F95D
:10207000C003C002C001E5392407FF122237AC06B5
:10208000AD07E53925E024D3F582E4340DF583E48A
:1020900093F54D740193F54EE53925E024E1F58281
:1020A000E4340DF583E493F54F740193F550D001BA
:1020B000D002D00312180DE53925E0243AF8EEF6E7
:1020C00008EFF6B4FF09EEB4FF057E007F0022059D
:1020D0003902204C7BFF7A0B79A1120E1712260FC2
:1020E000EF64077024F539E539C394075018E539D2
:1020F00025E0243AF8E6FC08E6FDE5392407FF125E
:0F2100002331053980E1121D9E7F0112264722EF
:101F660012240FEF7003FEFF22E4F539E539C3941E
:101F7600044003021FFAE53975F003A424EFF58245
:101F8600E4340DF583E493FB740193FA740293F938
:101F9600C003C002C001E539240EFF122237AC0689
:101FA600AD07E53925E024FBF582E4340DF583E43D
:101FB60093F54D740193F54EE53925E02403F5823A
:101FC600E4340EF583E493F54F740193F550D00194
:101FD600D002D00312180DE53925E0243AF8EEF6C2
:101FE60008EFF6B4FF09EEB4FF057E007F00220578
:101FF60039021F727BFF7A0B79A1120E1712260F78
:10200600EF6407702F7F01122475E4F539E539C3B3
:1020160094045018E53925E0243AF8E6FC08E6FD74
:10202600E539240EFF122331053980E1E4FF12243D
:0A20360075121D9E7F01122647223D
:1023A600D20A12240FEF7003FEFF227F1212223789
:1023B6008F397F12122237AC06AD077BFF7A0C7974
:1023C6003C754D00754EFFE4F54FF55012180D8F14
:1023D60039EFB4FF07E4B4FF03FEFF227BFF7A0B5D
:1023E60079A1120E1712260FEFB407177F011224D8
:1023F60075E539FD7C007F12122331E4FF12247546
:09240600121D9E7F0112264722DF
:10265E00E558A807088002C313D8FC30E0047F3089
:05266E0080027F312213
:101CB000E4F539D20A7F01122647D206300A2BE515
:101CC0003904FF1225CC15101510A810A60608A679
:101CD00007E539041510A810F67BFF7A0C79551228
:101CE0000E17051005100510C20AE5392410FF1261
:101CF00025CC15101510A810A60608A607AF391296
:101D0000265EEF3395E0FE900D7B75F003EF121524
:101D1000B0EE75F003A42583F583E493FB7401937F
:101D2000FA740293151015101510A810A60308A632
:101D30000208F67BFF7A0C7966120E17E51024056F
:101D4000F5107FC87E001225F11222B5EF6029241C
:101D5000F5601624FB603124097021E5390475F023
:101D6000068485F039D20A801FE53970057539057A
:101D700080021539D20A8010D20A800CC2067F0177
:101D80001226477E007F0022E55AD3940A500302B0
:0E1D90001CBC7F01122647C2067E007F002287
:101E8900E4F539F53BB2B4E53B25E025E02444F51A
:101E99003A04FF12223715101510A810A60608A635
:101EA90007AF3A12223715101510A810A60608A672
:101EB900071510A810A63B7BFF7A0C7976120E172E
:101EC900E5102405F510E53A2403FF122237151011
:101ED9001510A810A60608A607E53A2402FF122243
:101EE9003715101510A810A60608A6077BFF7A0C4F
:101EF9007986120E17E5102404F51012260FEF2427
:101F0900F5601224FD601D24077048E53B04541F49
:101F1900F53B021E8EE53B7006753B1F021E8E15B2
:101F29003B021E8E7BFF7A0C7991120E1712260F37
:101F3900EFB40C19E4F53BE53BC39480500FE53B46
:101F49002444FFE4FDFC122331053B80EAE4F53B20
:0D1F5900021E8E7F011226477E007F0022AF
:10162900E4F539F53BE539640C6064E53B75F00395
:10163900A42411F582E4340EF583E493FB74019339
:10164900FA740293151015101510A810A60308A610
:101659000208F67BFF7A0C79C6120E1705100510E1
:10166900051012260F8F39E539F46005E539B40DF7
:10167900057E007F0022E53964076005E539B40B72
:10168900A4E53B7005753B01809BE4F53B8096E53D
:101699003B6003021796D205E55AC3943C40030206
:1016A90017841222B5EF640D70030217841510A870
:1016B90010A6577BFF7A0C79CB120E170510E4FFA1
:1016C90012265E1510A810A6077BFF7A0C79D61290
:1016D9000E1705107F0112265E1510A810A6077BAC
:1016E900FF7A0C79DA120E1705107F0212265E15A1
:1016F90010A810A6077BFF7A0C79DA120E170510CD
:101709007F0312265E1510A810A6077BFF7A0C79B5
:10171900DA120E1705107F0412265E1510A810A6FE
:10172900077BFF7A0C79DA120E1705107F0512264E
:101739005E1510A810A6077BFF7A0C79DD120E172B
:1017490005107F081225CCEF2414FFE43E1510156F
:1017590010A810F608A60715101510A810A66308FA
:10176900A6647BFF7A0C79E2120E17E5102404F5C2
:10177900107FF47E011225F10216A17F0D12223786
:101789008F607F111222378F54C2058071E4F53BB7
:10179900E53BC394105067753910E53B242DFF12C2
:1017A90022378F3AE539640C603E1510A810A63A25
:1017B9001510A810A63B7BFF7A0C79F0120E1705BD
:1017C90010051012260F8F39E53964106005E539C7
:0F17D900B40D057E007F0022E539B40702053A02
:1017E800E539B40BC0153A80BCE53B242DFFE53A3A
:1017F800FD7C001223317F01122647053B80927F32
:05180800011226472239
:101BB9007F0112247575391EC3E53964809480400C
:101BC90074E53925E025E02444FF122237AC06AD3F
:101BD90007E53925E025E02448FF122331E53925B9
:101BE900E025E02445FF122237AC06AD07E539258B
:101BF900E025E02449FF122331E53925E025E024D9
:101C090046FF122237AC06AD07E53925E025E02469
:101C19004AFF122331E53925E025E02447FF122246
:101C290037AC06AD07E53925E025E0244BFF122343
:101C39003115398083AD68AC677F44122331AD6AB1
:101C4900AC697F45122331E47BA07A8CF9F8AF5E49
:101C5900AE5DAD5CAC5B12151EAD07AC067F4612DE
:101C69002331E47BA07A8CF9F8AF6EAE6DAD6CAC24
:101C79006B12151EAD07AC067F47122331E4FF1224
:101C89002475E4F56EF56DF56CF56BF55EF55DF5AE
:101C99005CF55BF567F568756927756A107BFF7AEE
:071CA9000C79FC1225A622B4
:10258000E4FEEEC39408501DEFA2E713FF30D7041A
:10259000C2A68002D2A6D2A5C2A5C2A5C2A5C2A5C6
:0625A000D2A50E80DD2231
:10113000121A95E4F56EF56DF56CF56BF55EF55DDF
:10114000F55CF55BF567F568756927756A10C2058A
:101150007BFF7A0D790C1225A67F647E001225F1A3
:101160007BFF7A0D79121225A67F647E001225F18D
:101170007BFF7A0D791C1225A6800B1222B5EF6435
:1011800010700302138312000E435610855680D24E
:10119000A3C2A3D203E55AC3940A4003021336152F
:1011A000101510A810A66308A6647BFF7A0D792A93
:1011B000120E17051005101222B5EF1215DC1312CE
:1011C0000011E00112760213300312280412C40544
:1011D000132406131808131E09132A0A0000119578
:1011E0001222B5EF640160F87BFF7A0A79CE120E05
:1011F000171222B5EFB41028E55AC3940A502115EE
:10120000101510A810A66308A6647BFF7A0D792A32
:10121000120E17051005107FF47E011225F180D102
:101220007F011226470211951222B5EF640460F87F
:101230007BFF7A0A79CE120E171222B5EF64107076
:101240002DE55AC3940A50267F091225CC15101596
:1012500010A810A60608A6077BFF7A0D794A120E81
:1012600017051005107FF47E011225F180CB7F0158
:101270001226470211951222B5EF640260F87BFF37
:101280007A0A79CE120E171222B5EF6410702DE58E
:101290005AC3940A50267F071225CC15101510A8A2
:1012A00010A60608A6077BFF7A0D7969120E1705AE
:1012B0001005107FF47E011225F180CB7F011226EC
:1012C000470211951222B5EF640560F87BFF7A0A98
:1012D00079CE120E171222B5EF6410702DE55AC3A5
:1012E000940A50267F0A1225CC15101510A810A6B6
:1012F0000608A6077BFF7A0D7986120E17051005E2
:0113000010DC
:101301007FF47E011225F180CB7F01122647021165
:1013110095121CB002119512204002119512162946
:101321000211951223A6021195121F660211951240
:101331001E890211957F081226475356EF85568064
:10134100C203D2A3C2A37FFF1225807FFF12258093
:101351007FFF1225807FFF1225807FFF1225807F6E
:10136100FF1225807FFF1225807FFF1225807FFFDE
:101371001225807FFF1225807FFF1225807FFF12BB
:10138100258030014AAD68AC677F44122331AD6AD4
:10139100AC697F45122331E47BA07A8CF9F8AF5E0A
:1013A100AE5DAD5CAC5B12151EAD07AC067F46129F
:1013B1002331E47BA07A8CF9F8AF6EAE6DAD6CACE5
:1013C1006B12151EAD07AC067F47122331C20120F7
:0E13D100000302117B121BB9C20002117B2225
:030023000224C8EC
:1024C800C0E0C0D075D00830983AC298E599B4AA4F
:1024D80005755900C20920092B74112559F8A699C8
:1024E8000559E559C39406401B7911E77812260867
:1024F800260826082608667008D207F559D20980EA
:1025080003755900309904C299D204D0D0D0E03272
:080003003004FD8F99C20422B4
:1025A6008B3A8A3B893CAB3AAA3BA93C1213DF60C3
:1025B600141213DFFF1200037401253CF53CE435C9
:0625C6003BF53B80E12221
:10255700AE078C318D327FAA1200037DAAAF061217
:102567000003EE2DFDAF321200032532FDAF31120D
:0925770000032531FF12000322CC
:0300000002267362
:0C267300787FE4F6D8FD75816F0211300D
:1013DF00BB010689828A83E0225002E722BBFE020C
:0913EF00E32289828A83E493223F
:1013F800F8BB010DE58229F582E5833AF583E8F02B
:10140800225006E92582C8F622BBFE05E92582C8D6
:02141800F222BE
:10141A00EF8DF0A4A8F0CF8CF0A428CE8DF0A42EE6
:02142A00FE22A0
:10142C00BC000BBE0029EF8DF084FFADF022E4CCA4
:10143C00F875F008EF2FFFEE33FEEC33FCEE9DEC6D
:10144C00984005FCEE9DFE0FD5F0E9E4CEFD22EDB3
:10145C00F8F5F0EE8420D21CFEADF075F008EF2FFD
:10146C00FFED33FD4007985006D5F0F222C398FDEE
:05147C000FD5F0EA228B
:10148100C2D5EC30E709B2D5E4C39DFDE49CFCEE86
:1014910030E715B2D5E4C39FFFE49EFE12142CC3BE
:1014A100E49DFDE49CFC800312142C30D507C3E4B9
:0614B1009FFFE49EFE22F5
:1014B700BB010A89828A83E0F5F0A3E02250068700
:1014C700F009E71922BBFE07E3F5F009E3192289C2
:0B14D700828A83E493F5F074019322F5
:1014E20075F008758200EF2FFFEE33FECD33CDCCC1
:1014F20033CCC58233C5829BED9AEC99E582984044
:101502000CF582EE9BFEED9AFDEC99FC0FD5F0D620
:10151200E4CEFBE4CDFAE4CCF9A88222B800C1B94A
:101522000059BA002DEC8BF084CFCECDFCE5F0CB88
:10153200F97818EF2FFFEE33FEED33FDEC33FCEBC1
:1015420033FB10D703994004EB99FB0FD8E5E4F97C
:10155200FA227818EF2FFFEE33FEED33FDEC33FC69
:10156200C933C910D7059BE99A4007EC9BFCE99A5D
:10157200F90FD8E0E4C9FAE4CCFB2275F010EF2FA2
:10158200FFEE33FEED33FDCC33CCC833C810D707A2
:101592009BEC9AE899400AED9BFDEC9AFCE899F8DD
:0E15A2000FD5F0DAE4CDFBE4CCFAE4C8F92270
:0C15B000A42582F582E5F03583F5832246
:1015BC00BB010789828A8302160B5005E9F80216D3
:1015CC0002BBFE05E9F802161489828A8302161DF5
:1015DC00D083D082F8E4937012740193700DA3A39E
:1015EC0093F8740193F5828883E4737402936860B2
:0615FC00EFA3A3A380DFB2
:09160200E6FB08E6FA08E6F9220D
:09160B00E0FBA3E0FAA3E0F922E0
:09161400E2FB08E2FA08E2F92207
:0C161D00E493FB740193FA740293F92229
:00000001FF
