:03002300021E407A
:101E4000C0E0C0D075D00830983AC298E599B4AADD
:101E500005755A00C20720072B7411255AF8A69958
:101E6000055AE55AC39406401B7911E778122608F3
:101E7000260826082608667008D206F55AD207807A
:101E800003755A00309904C299D203D0D0D0E03201
:080003003003FD8F99C20322B6
:101FAC008B3B8A3C893DAB3BAA3CA93D120C05FFFF
:101FBC0060101200037401253DF53DE4353CF53C01
:031FCC0080E4228C
:101F8400AE078C318D327FAA1200037DAAAF0612F0
:101F94000003EE2DFDAF321200032532FDAF3112E6
:081FA40000032531FF020003D8
:10087600072020204A52542D34382D313030000ABA
:1008860053797374656D20496E69742E2E2E000798
:100896004550524F4D204552524F52210A4C6F61DE
:1008A600642044656661756C742E2E2E000A2573CD
:1008B6002020202020202020202020200007456EF8
:1008C6007465722050617373776F72643A000850D2
:1008D600617373776F7264204572726F72210007BD
:1008E60000084D4158494D554D20424F4F53540A2B
:1008F600564F4C5441474520256F56200008424F1D
:100906004F53542054415045522041540A564F4C9F
:100916005441474520256F56200008464C4F415408
:10092600204D4158494D554D0A564F4C5441474567
:1009360020256F56200008464C4F4154204D494E05
:10094600494D554D0A564F4C5441474520256F5643
:1009560020000852455455524E20544F20424F4FC6
:1009660053540A4D4F44452042454C4F5720256F5E
:100976005620000854454D50455241545552452085
:10098600434F4D500A4154202D25646D562FDF43A9
:100996002F43454C4C2000085354415445204348AE
:1009A600414E47450A44454C415920256420532071
:1009B60020000753415645204348414E47453F0ACC
:1009C600494E433D594553204F544845523D4E4F9D
:1009D60000084C4F57204241545445525920414C2F
:1009E6002D0A41524D204F4E20415420256F56204E
:1009F60000085245434F4E4E454354204C4F414408
:100A06000A41424F564520256F562000084849475F
:100A160048204241545445525920414C2D0A4152D6
:100A26004D204F4E20415420256F56200008444546
:100A36004C4159204245464F52450A444953434F7B
:100A46004E4E454354202564205320200008536908
:100A560074204E756D6265723A0A25642020004F37
:100A66004646004F4E000842414E4B256520256FF5
:100A7600566F63202020000A5B25735D202020200E
:100A860020256F412020000744256520483A256F20
:100A9600204C3A256F56000A433A256420443A25ED
:100AA600640054657374204D6F6465004D6574650C
:100AB600722041646A757374000725732000085418
:100AC60045535420413A25650020256300256300DF
:100AD60025632020000A423A20256F5620543A25E5
:100AE60064200007494E2025650A2565202000411F
:100AF60054264645305630583053303D310D00416E
:100B060054264645305630264B30583053303D310A
:100B16000D00084241545445525920564F4C5441F9
:100B260047450A20202020202020202020256F56FF
:100B36002000084348415247452043555252454EEE
:100B4600540A20202020202020202020256F41200C
:100B560000084C4F414420564F4C544147450A200B
:100B6600202020202020202020256F562000084C01
:100B76004F41442043555252454E540A20202020CE
:100B8600202020202020256F412000039F250D993D
:100B960049411F0109FFE0D0B070E1D1B171E2D245
:100BA600B272E3D3B373FF08E7FF0903FF0920FF1F
:100BB600093CFF0958FF0979FF099D02BC02BC02E6
:100BC600BC02BC02BC0014016801900190019001B6
:100BD60090019000000006FF09D7FF09F7FF0A12EF
:100BE600FF0A3302BC02BC02D000FA019001900158
:0F0BF600900001FF0A65FF0A69FF0AA8FF0AB213
:100E4F00AE22AF237C007D0A120C528E228F237CA0
:100E5F00007D0A120C5274912DF582740B3CF583B0
:100E6F00E493227814E6FE08E67C002400FDEC3EB5
:100E7F00FC2215101510A810A64C08A64DAB49AAB8
:100E8F004AA94B1210890510051022FF121DEE15ED
:100E9F00101510A810A60608A6072212000E15108E
:100EAF00A810A6077BFF7A0A79D3121089051022A2
:100EBF00FF121DEEAC06AD07E53A25E025E022F561
:100ECF0083E493FB740193FA7402931510151015B4
:100EDF0010A81022E9C4131313540124FF9295D2C2
:100EEF0096C29622E5102404F8E6FC08E6FDE5100C
:100EFF002406F8E6FE08E6FF120C52EF2430FF122C
:100F0F001F19E5102406F822E510240DF8860308B2
:100F1F000806E6188602223EFE7C007D05120C5262
:100F2F00AC06AD0722C3E54D954FE54E6480F8E55D
:100F3F004C64809822E6FE08E6FFE5102404F8E6EC
:100F4F00FA08E6FBFDAC02020C52E5102408F8E6A5
:100F5F00FE08E6FFFDAC06AF03AE02020C52A6067A
:100F6F0008A607E5102404F909E722C2AFC295C20B
:100F7F0096C297D294D2972214F9120C05A810F6A4
:100F8F0022E4F56BF56AF569F568F55FF55EF55DD9
:100F9F00F55C22D296C296C295D296C29622E510E1
:100FAF002404F8E6FE08E6FFD39401EE940022E550
:100FBF00102408F8760008760AE5102404F82212A7
:100FCF001CD9EF641022A60308A60208A60122F579
:100FDF0083E493FB740193FA740293F922E51024CE
:100FEF0006F9D3EF0997EE199722AB4EAA4FA950E6
:100FFF0085528275830022FF121DEEAC06AD0722CB
:10100F0012000E1510A810A60722E510240AF88664
:10101F00030808E6F9227FC87E00022019A664089B
:10102F00A6657BFF22E5582401FFE433FEE5542239
:10103F00A60408A605E5102404F822D295D296C27C
:10104F009622A810E6FF121F19EF4E22A60308A63C
:10105F000208F67BFF22121089E5102405F51022F5
:10106F007F0112204C7E007F0022121089E5102490
:04107F0004F5102242
:101780007F08121DEEAC06AD077F01121E9D7F087B
:10179000121DEEEF7802C333CE33CED8F9FDAC067E
:1017A000C004C0057F07121DEED0E02FFFD0E0126D
:1017B0000F267F02121E9D7F08121DEE7C007D0306
:1017C000120C40C006C0077F07121834D0E02DFF6E
:1017D000D0E03C120F277F0312182C7C007D0312EF
:1017E0000C40C006C0077F08121834D0E02DFFD08F
:1017F000E03C120F277F0412182CEF7802C333CE7F
:1018000033CED8F9FDAC06C004C0057F08121DEE2A
:10181000D0E02FFFD0E0120F267F05121E9D7F071C
:10182000121DEEAC06AD077F06021E9D121E9D7FA7
:0F18300007021DEE121DEEEF25E0FDEE33FC2248
:10166900C2B6758010755910755710D2A4D2A3C28D
:10167900A4C2A3E4F556F53A7F03121EF8053AE52C
:101689003AC3940C40F27D007C047F3E121E9DD229
:10169900011220637BFF7A0879761210897BFF7A21
:1016A9000879851210897F407E1F122019D203E420
:1016B900F55AFF121DEEEF64464E70030217577B71
:1016C900FF7A087995121089121FFB7D587C027FD9
:1016D90007121E9D7D307C027F08121E9D7D307C85
:1016E900027F09121E9D7D1C7C027F0A121E9D7DB0
:1016F9003C7C007F0D121E9D7DF07C017F0B121E2C
:101709009DE4FDFC7F0C121E9D7DC07C017F0E12A5
:101719001E9D7D807C027F10121E9D7D007C027FB4
:101729000F121E9D7DC87C007F11121E9D753A25E2
:101739007D38121773942D40F7753A2D7D80121755
:1017490073943D40F77D467C00E4FF121E9D1217FD
:101759008075A81275B810759870758921758DFDF9
:10176900E4F587D28ED28CD2AF227C00AF3A121E1A
:071779009D053AE53AC32289
:101B0700E55754F04FF557F580D2A3C2A3E4F53853
:101B1700F539F5340534E534B4FFF9E4F534E4FC7C
:101B2700FDC2B7D2B5C2B230B5FDD2B7C2B7D2B7D0
:101B3700A2B5E4334205E4C2B7F535D2B7ED25E0E7
:101B4700FFEC33FEA2B5E433FBEEFCEF4BFDC2B76F
:101B57000535E535B40BE4D2B5D2B7D2B2ED2539A8
:101B6700F539EC3538F538B2B40534E534B410AE90
:101B7700E538C4F854F0C868FCE539C4540F48FD8B
:041B8700FFAE042287
:1013B5008F31E531120E02147F0014150114150248
:1013C50014150314150414150514150613F3071441
:1013D5005208148E0914820A149A1014A71114B411
:1013E5001214C11314CE1414DB15000014E81214E2
:1013F500F88E328F33D3E5659533E5649532400B2E
:10140500E5659533FFE5649532FE227E007F002277
:1014150043593F1215048E328F33E53325E0FFE53E
:101425003233FE7C007D05120C52E56524E8CDE5DE
:10143500643403CDC39FFBED9EFAAE32AF337C001F
:101445007D64120C52C3EB9FFFEA9EFE22AF311260
:101455001B07EF248CFFEE34F4FE7C007D0A120C92
:10146500A78E328F33D3E5339464E532940040057B
:101475007E007F0022AE32AF33220214F8AF311264
:101485001B077C007D08020CA7AF31121B077C00EF
:101495007D04020CA7E559443F54FEF55975310901
:1014A5008046E559443F54FDF5597531098039E5C4
:1014B50059443F54FBF559753109802CE559443F92
:1014C50054F7F559753109801FE559443F54EFF537
:1014D500597531098012E559443F54DFF559753185
:1014E5000980057E007F00221215047C007D041210
:1014F5000CA722AF31121B077C007D04020CA785C7
:0B1505005980D2A4C2A4AF31021B0722
:101FCF008F3D853D6CE4F53DE56CB4FF05AE66AF26
:101FDF0067227F147E00122019053DE53DC394FF53
:031FEF0040E622A7
:03000B0002045993
:10045900C0E0C0F0C083C082C0D075D000C000C069
:1004690001C002C003C004C005C006C007758C4C9A
:10047900758A01E56CF4600CAF6C1213B58E668F4A
:1004890067756CFF300603120026AF530553EF64FE
:1004990013600302078BB2B4F55320020302053837
:1004A9007F0A1213B5120E5AF524120E4F14F525B0
:1004B900120E4FF526120E4FF52785642285652306
:1004C900AE22AF23120E5EF528120E4F14F5291233
:1004D9000E4FF52A120E4FF52B7F091213B5120E86
:1004E9005AF52C120E4F14F52D120E4FF52E120E31
:1004F9004FF52FAF24121EF8AF25121EF8AF2612A2
:100509001EF8AF27121EF8AF28121EF8AF29121EC7
:10051900F8AF2A121EF8AF2B121EF8AF2C121EF8D4
:10052900AF2D121EF8AF2E121EF8AF2F121EF8E4CF
:10053900FF1213B58E648F657F0C121DEE7C007D52
:1005490018120C40C006C0077F081213B5AC06ADDF
:1005590007D007D006120C407C007D64120C52C3F0
:10056900E5659FF523E5649EF522E558C394075098
:1005790068E55814FF1208295026E55814FFB554A8
:100589000CE561600302066115580206618F54305B
:1005990004047F0280057F0D121DEE8F6102066142
:1005A900AF58120829402C121034B50710E4B506CB
:1005B9000CE56160030206610558020661E558040D
:1005C900F5543004047F0280057F0D121DEE8F6102
:1005D900020661755400020661E558B40D077F0BE8
:1005E900121DEE80057F0A121DEEC3E5239FE52249
:1005F9009E5034121034B50719E4B50615E561703B
:1006090057E558B40D047F018004E55804FF8F585D
:100619008046E55804F5543004047F0280057F0DB7
:10062900121DEE8F6180317F091208344027E55889
:1006390064076021E55814FFB55408E56170191580
:100649005880158F543004047F0280057F0D121DD8
:10065900EE8F6180037554007F441208344009AD60
:1006690023AC227F44121E9D7F4512084C5009ADD0
:01067900235D
:10067A00AC227F45121E9D7F0912086CE55F2FF59B
:10068A005FE55E3EF55EE55D3DF55DE55C3CF55C8E
:10069A007F0A12086CE56B2FF56BE56A3EF56AE591
:1006AA00693DF569E5683CF568E47BA07A8CF9F860
:1006BA00AF5FAE5EAD5DAC5C120D44AD07AC067FBC
:1006CA0046121E9DE47BA07A8CF9F8AF6BAE6AAD38
:1006DA0069AC68120D44AD07AC067F47121E9DE552
:1006EA0056703D7F101208614010E55570634357FC
:1006FA00C075560112085702075B7F0E12084C504C
:10070A000FE555704C4357A07556021208578041A1
:10071A003004047F0280057F11121DEE8F5580314F
:10072A00E5566401701E7F10121DEEEF24D8FFEE0D
:10073A0034FFFEC3E5239FE5229E501553573F120F
:10074A00083F800D7F0F120861400653575F120859
:10075A003F15611555AF600560EF643B7023F56086
:10076A00055BE556FD7C007FFE121F84AF630563BF
:10077A00EFB43B0D756300AF620562EFB41702D2A6
:10078A0000AF807522008F23855780D2A3C2A3E5CC
:10079A005814B40D0050519007A8F828287302077E
:1007AA00CF0207D40207D90207DE0207E30207E8ED
:1007BA000207ED0207E80207E30207DE0207D90291
:1007CA0007D40207CF7559008021755920801C75FE
:1007DA0059308017755938801275593C800D7559F2
:1007EA003E800875593F8003755801E556600543F8
:1007FA00594080035359BF200507855980D2A4C2A6
:10080A00A4852380D007D006D005D004D003D00217
:10081A00D001D000D0D0D082D083D0F0D0E0321234
:10082A001DEEC3E5239FE5229E22121DEED3E5238A
:10083A009FE5229E22755600E556FD7C007FFE024A
:10084A001F84121DEEC3E5239FE5229E22E556FD75
:10085A007C007FFE021F84121DEED3E5239FE52252
:0C086A009E221213B5EE3395E0FDFC2237
:100026007812E66401600302027B08E6120E020003
:10003600A20000AE0100BB0200C80300D50400E226
:100046000500EF0600FC07010908011D09012A0A3F
:1000560001370E01440F015110015E11016B1201AF
:10006600781301851401921501A32001AE2101B96F
:100076002201C42301CF2401DA2501E52601F02758
:1000860001FB2802062902112A021C2B02292C0236
:10009600362D02432E0250430000026FAD65AC645C
:1000A600E4FF121F840203A07F071203E97F0112F7
:1000B6001F840203A07F011203E97F02121F84023C
:1000C60003A07F021203FB7F03121F840203A07F9B
:1000D600031203FB7F04121F840203A07F04120491
:1000E6000D7F05121F840203A07F0512040D7F06F3
:1000F600121F840203A07F0612041F7F07121F84AB
:100106000203A07F081213B5EF2414FDE43EFC7F22
:1001160008121F840203A0E558FD7C007F09121F08
:10012600840203A0E556FD7C007F0A121F840203A9
:10013600A07F0A12041F7F0E121F840203A07F09EC
:100146001204317F0F121F840203A07F10120431A4
:100156007F10121F840203A07F111204417F111227
:100166001F840203A07F121204417F12121F840211
:1001760003A07F131204517F13121F840203A07F72
:10018600141204517F14121F840203A07F15121348
:10019600B5AC06AD077F15121F840203A01203A398
:1001A6007F20121F840203A01203AD7F21121F8439
:1001B6000203A01203B77F22121F840203A01203B8
:1001C600C17F23121F840203A01203CB7F24121FB8
:1001D600840203A01203D57F25121F840203A012F6
:1001E60003DF7F26121F840203A01203F17F27126A
:1001F6001F840203A01204037F28121F840203A097
:100206001204157F29121F840203A01204277F2AD5
:10021600121F840203A07F3E1204397F2B121F8413
:100226000203A07F3F1204397F2C121F840203A011
:100236007F401204497F2D121F840203A07F4112C2
:0C02460004497F2E121F840203A07530B3
:1002520044AF30121DEEAC06AD07AF30121F84B2B0
:10026200B40530E530C394C440E70203A07DFF7CAF
:10027200007FFF121F840203A07813E624E0B40B70
:1002820000400302038490028FF82828730202B010
:100292000202C60202DC0202EF020302020315029C
:1002A200032802033B02034E020360020372120E92
:1002B200727F07121E9D1203A37F20121F84121742
:1002C200800203A0120E727F08121E9D1203AD7FE0
:1002D20021121F841217800203A0120E727F0912CC
:1002E2001E9D1203B77F22121F840203A0120E72F8
:1002F2007F0A121E9D1203C17F23121F840203A0D4
:10030200120E727F0B121E9D1203CB7F24121F84CA
:100312000203A0120E727F0C121E9D1203D57F25BE
:10032200121F840203A0120E727F0D121E9D120371
:10033200DF7F26121F840203A0120E727F0E121E8E
:100342009D1203F17F27121F840203A0120E727FF7
:100352000F121E9D1204037F28121F848040120E6A
:10036200727F10121E9D1204157F29121F84802E87
:10037200120E727F11121E9D1204277F2A121F84F1
:10038200801C120E727813E6FF121E9D7813E6FF90
:10039200121DEEAC06AD077813E6FF121F84C206EB
:1003A200227F07121DEEAC06AD07227F08121DEE5A
:1003B200AC06AD07227F09121DEEAC06AD07227F07
:1003C2000A121DEEAC06AD07227F0B121DEEAC0623
:1003D200AD07227F0C121DEEAC06AD07227F0D1277
:1003E2001DEEAC06AD07221213B5AC06AD07227F97
:1003F2000E121DEEAC06AD07221213B5AC06AD0708
:10040200227F0F121DEEAC06AD07221213B5AC0609
:10041200AD07227F10121DEEAC06AD07221213B5F6
:10042200AC06AD07227F11121DEEAC06AD072212FB
:1004320013B5AC06AD0722121DEEAC06AD072212B3
:1004420013B5AC06AD0722121DEEAC06AD072212A3
:0704520013B5AC06AD072253
:101F5300120F7A3094FD12104AEF7009120FA6D2B5
:101F630096C2968009120FA6D296C2967FC0E4FE4F
:101F7300EF120EE4EF25E0FF0EBE08F4C297D2AFD6
:011F8300223B
:0D1E9000FDFC7F44121E9D7D107C277F45C8
:101E9D00A907AB05AA047F01121F53120F7A3094C4
:101EAD00FDD295120FA212104AE4FD120EE3E925A0
:101EBD00E0F90DBD08F5E4FDEA120EE4EB25E0FBBB
:101ECD00EA33FA0DBD10F1C297D2AFE4FF021F53F2
:101DEE00A907C2AFE4FF120F7C3094FDC297D297C1
:101DFE0012104A120FA2E4FD120EE3E925E0F90DCE
:101E0E00BD08F53094090FBF0ADC7E007F0022E486
:101E1E00FDEB25E0FBEA33FAD296C296A294E433A8
:101E2E00FFE4EF42030DBD10E8C297D2AFAF03AE91
:021E3E0002227E
:10203200C2AF7580FFC2A0D2A1D2A2AF80C2A2D28B
:0A204200AFEFC41313135401FF2283
:10204C00AE07122032EF70FAC2AFC2A1C2A08E80CE
:07205C00D2A2C2A2D2AF2202
:102063007F3812204C7F0612204C7F0C12204C7FAD
:042073000102204CFA
:101F1900121012122032EF70FAC2A1C2A0A810E664
:101F2900FF24F9601114600924FE700F7580C080C8
:101F39000E75800280097580018004D2A08F80D23D
:0A1F4900A2C2A27E007F0005102254
:061083007BFF7A0879E50D
:10108900120EDA120FD5E51024F3F510240D2403FE
:10109900F9E433FAE510240AF87600120FD7120F93
:1010A90017700106120F876425601CA810E6FD70F1
:1010B90006FE7F01021227AF05121F19EF4E60DEEF
:1010C9007E007F01021227120F17700106120F8787
:1010D900249C700302119E14605A24F670030211B5
:1010E9009E24FC601D2410700DE510240A120F1BAC
:1010F900700106120F8712105160A37E007F010252
:1011090012271210192403F618E6FA3400F6120D04
:10111900E2A81008120FD5A81008120F1C700106BA
:10112900120F8770030210A712105160EA7E007F28
:1011390001021227120FBE7600087664E510240A10
:10114900120F1B70010614F9120C05FFE510240695
:10115900F8760008A607120FAD401C120FEC4017D5
:10116900E5102404F8C0007C007D0A120C52D0005E
:10117900A60608A60780DF120EF3C000120F44D09E
:101189000012103FC000120F59D000120F6D1947FD
:1011990070E50210A7120FBE7627087610121019F3
:1011A9002402F618E6FA3400F6120CDDFFE51024E5
:1011B90006F8A6F008A607120FAD401C120FEC4066
:1011C90017E5102404F8C0007C007D0A120C52D0E7
:1011D90000A60608A60780DFA810E6B46F0E120F56
:1011E900726401194770057F30121F19A810E6B4FF
:1011F9006F0E120F726401194770057F2E121F19A5
:10120900120EF3C000120F44D00012103FC000129A
:101219000F59D000120F6D194770D10210A7E510B0
:051229002410F5102265
:042015007FF47E01D5
:10201900D3EF9400EE9400400FE4FDB2B40DBD641B
:09202900FAEF1F70EB1E80E822A3
:101CD900B2B4E4FB7401A803088002C333D8FCF44E
:101CE900F590E590440FFCF4601D7F147E001220EE
:101CF90019ECB590047F0180027F00EF440F600B5F
:101D0900EC54F02BFC80040BBB04C97590FFE4FB79
:101D1900EB900B9C93B50408AC03E4F55BAF04228C
:101D29000BBB10EC20A706E4F55B7F01227F102294
:091FF2007BFF7A0979B81210890D
:101FFB00120FCE6007E55BC3940A40F4121CD9BFE5
:0A200B001007E55BC3940A40F322BE
:101B8B008B4E8A4F89508D51E4F552121FFBAD07D6
:101B9B00BD0C057E007F0122BD0D10E552D39400D4
:101BAB0040091552120FF9E4120C1EEDC3940A50A2
:101BBB002CE552C395515025ED2430120FF9120C20
:101BCB001E0552AD52EDC395515012AB4EAA4FA903
:101BDB00508D82758300E4120C1E0D80E8AA4FA96C
:101BEB0050120EDAA64E120FD77BFF7A0879B3127A
:081BFB000E920510021B962258
:1019AA008B498A4A894B8C4C8D4D7F0112204C12EF
:1019BA000E81121FFB8F52BF10057EFF7FFF22E5AB
:1019CA0052B40C05AE4CAF4D22E552640770361284
:1019DA000F345008054DE54D7002054C120E811268
:1019EA001CD9EF6407701E122015121CD9BF07EF0D
:1019FA00120F345008054DE54D7002054C120E8148
:101A0A0012102580E5E552640B709FD3E54D955180
:101A1A00E550120F3B4008E54D154D7002154C126A
:101A2A000E81121CD9EF640B7080122015121CD97A
:101A3A00BF0BEFD3E54D9551E550120F3B4008E53A
:101A4A004D154D7002154C120E8112102580DE22A2
:101D9400E4F54D7449254DF8E4F6054DE54DB404DC
:101DA400F27BFF7A0879C31210897B007A007949A3
:101DB4007D03121B8BE4F54DE54D2425FF121DEE2A
:101DC4007449254DF8E66F7001EE60127BFF7A08C6
:101DD40079D4121089121FFB1210837F0022054D43
:0A1DE400E54DC3940340D17F0122B6
:101A5A00121D94EF7003FEFF22E4F53AE53A75F0A1
:101A6A0003A424ACF582E4340B120FDEC003C002D7
:101A7A00C001E53A2407121006E53A25E024C1F52B
:101A8A0082E4340BF583E493F54E740193F54FE544
:101A9A003A25E024CFF582E4340BF583E493F5503C
:101AAA00740193F551D001D002D0031219AAE53A74
:101ABA0025E0243BF8EEF608EFF6BEFF08BFFF0567
:101ACA007E007F0022053AE53AC39407408E121F32
:101ADA00F2BF0723E4F53AE53A25E0243BF8E6FCB1
:101AEA0008E6FDE53A2407FF121E9D053AE53AC3CA
:0D1AFA00940740E31217807F0112204C2258
:10183F00121D94EF7003FEFF22E4F53AE53A75F0BE
:10184F0003A424DDF582E4340B120FDEC003C002C3
:10185F00C001E53A240E121006E53A25E024E9F519
:10186F0082E4340BF583E493F54E740193F54FE561
:10187F003A25E024F1F582E4340BF583E493F55037
:10188F00740193F551D001D002D0031219AAE53A91
:10189F0025E0243BF8EEF608EFF6BEFF08BFFF0584
:1018AF007E007F0022053AE53AC39404408E121F52
:1018BF00F2EF6407702D7F01121F53E4F53AE53AFA
:1018CF0025E0243BF8E6FC08E6FDE53A240EFF127E
:1018DF001E9D053AE53AC3940440E3E4FF121F53FB
:0918EF001217807F0112204C2227
:101D3900D208121D94EF7003FEFF227F12121DEECE
:101D49008F3A7F121210077BFF7A0A7953754E007A
:101D5900754FFFE4F550F5511219AA8F3A7E00BE6E
:101D6900FF06BFFF037F0022121FF2BF07177F0183
:101D7900121F53E53AFD7C007F12121E9DE4FF12EB
:0B1D89001F531217807F0112204C2214
:10000E00E559A807088002C313D8FC30E0047F30FE
:05001E0080027F312289
:1018F800E4F53AD2087F0112204CD20530081FE5E2
:101908003A04FF121FCF120E9EE53A041510A810D4
:10191800F67BFF7A0A796C120E920510C208E53A36
:101928002410FF121FCF120E9EAF3A12000EEF3393
:1019380095E0FE900B6975F003EF120DD6EE75F089
:1019480003A42583120ECE12105B7A0A797D121039
:1019580065121025121CD9EF602924F5601624FBA6
:10196800602A24097021E53A0475F0068485F03A66
:10197800D2088018E53A7005753A058002153AD202
:10198800088009D2088005C20502106FE55BD39470
:101998000A50030219047F0112204CC2057E007F01
:0219A80000221B
:101C7200E4F53AF53CE53C25E025E02444F53B0457
:101C8200120E9AAF3B120E9B1510A810A63C7BFFBA
:101C92007A0A798D121065E53B2403120E9AE53B10
:101CA2002402120E9A7BFF7A0A799D121079121F72
:101CB200FBEF24F5600E24047019E53C04541FF573
:101CC2003C021C77E53C7006753C1F021C77153CF4
:071CD200021C7712106F22C3
:10151000E4F53AF53CE53A640C6049E53C75F003C6
:10152000A424FFF582E4340B120ECE12105B7A0A6B
:1015300079BF120E920510121FFB8F3AE53AF46044
:1015400005E53AB40D057E007F0022E53A640760A8
:1015500005E53AB40BBFE53C7005753C0180B6E487
:10156000F53C80B1E53C60030215F8D204E55BC3AD
:10157000943C5072121CD9EF640D606A1510A810CB
:10158000A6587BFF7A0A79C41210890510E4FF126D
:10159000100F7BFF7A0A79CF12108905107F011294
:1015A0000EAA7F02120EAA7F03120EAA7F04120E49
:1015B000AA7F0512100F7BFF7A0A79D612108905CF
:1015C000107F08121FCFEF2414FFE43E120EDCF64A
:1015D00008A607120EDC12102C7A0A79DB12107999
:1015E00012201502156D7F0D121DEE8F617F1112F5
:1015F0001DEE8F55C204806BE4F53C753A10E53C56
:10160000242DFF121DEE8F3BE53A640C603A151055
:10161000A810A63B1510A810A63C7BFF7A0A79E912
:10162000120E92121FFB8F3AE53A64106005E53AFC
:10163000B40D057E007F0022E53AB40702053BE5C4
:101640003AB40BC4153B80C0E53C242DFFE53BFDBF
:101650007C00121E9D7F0112204C053CE53CC3948A
:091660001040987F0112204C2279
:101C03007F01121F53753A1E120EC72444120EBFD2
:101C13002448FF121E9D120EC72445120EBF2449ED
:101C2300FF121E9D120EC72446120EBF244AFF1236
:101C33001E9D120EC72447120EBF244BFF121E9D7A
:101C4300153AC3E53A6480948050BDE4121E90E4D3
:101C5300FDFC7F46121E9DE4FD7F47121E9DE4FF9F
:0F1C6300121F53120F907BFF7A0A79F5021FAC04
:101EDD007FFF121EF87FFF121EF87FFF121EF87F84
:0B1EED00FF121EF87FFF121EF87FFF9F
:101EF800E4FEEFA2E713FF30D704C2A68002D2A601
:101F0800D2A5C2A5C2A5C2A5C2A5D2A50EBE08E289
:011F180022A6
:10122E00121669120F90121E90C2047BFF7A0B7970
:10123E0005121FAC8008120FCE70030213A71220E6
:10124E0063435710855780D2A3C2A3D202E55BC376
:10125E00940A4003021390120EDC12102C7A0B79B2
:10126E0018120E92121CD9EF120E02136C00129B62
:10127E0001130202138A0312CD04133705137E06DF
:10128E0013720813780913840A0000125B121CD91A
:10129E00EF640160F8121083121CD9BF1019E55BC0
:1012AE00C3940A5012120EDC12102C7A0B791812FB
:1012BE000E9212201580E17F0112204C02125B1259
:1012CE001CD9EF640460F8121083120FCE701DE566
:1012DE005BC3940A50167F09121FCF120E9E7BFF1E
:1012EE007A0B7938120E9212201580DE7F011220B1
:1012FE004C02125B121CD9EF640260F812108312BA
:10130E000FCE701DE55BC3940A50167F07121FCFD8
:10131E00120E9E7BFF7A0B7957120E9212201580B9
:10132E00DE7F0112204C02125B121CD9EF640560A5
:10133E00F8121083120FCE701DE55BC3940A50167F
:10134E007F0A121FCF120E9E7BFF7A0B7974120E3C
:10135E009212201580DE7F0112204C02125B1218B1
:10136E00F802125B121A5A02125B12151002125B6D
:10137E00121D3902125B12183F02125B121C72020E
:10138E00125B7F0812204C5357EF855780C202D252
:10139E00A3C2A3121EDD121EDD2000030212441290
:0713AE001C03C200021244FF
:0300000002207764
:0C207700787FE4F6D8FD75816C02122E13
:100C0500BB010689828A83E0225002E722BBFE02ED
:090C1500E32289828A83E4932220
:100C1E00F8BB010DE58229F582E5833AF583E8F00C
:100C2E00225006E92582C8F622BBFE05E92582C8B8
:020C3E00F222A0
:100C4000EF8DF0A4A8F0CF8CF0A428CE8DF0A42EC8
:020C5000FE2282
:100C5200BC000BBE0029EF8DF084FFADF022E4CC86
:100C6200F875F008EF2FFFEE33FEEC33FCEE9DEC4F
:100C7200984005FCEE9DFE0FD5F0E9E4CEFD22ED95
:100C8200F8F5F0EE8420D21CFEADF075F008EF2FDF
:100C9200FFED33FD4007985006D5F0F222C398FDD0
:050CA2000FD5F0EA226D
:100CA700C2D5EC30E709B2D5E4C39DFDE49CFCEE68
:100CB70030E715B2D5E4C39FFFE49EFE120C52C382
:100CC700E49DFDE49CFC8003120C5230D507C3E47D
:060CD7009FFFE49EFE22D7
:100CDD00BB010A89828A83E0F5F0A3E022500687E2
:100CED00F009E71922BBFE07E3F5F009E3192289A4
:0B0CFD00828A83E493F5F074019322D7
:100D080075F008758200EF2FFFEE33FECD33CDCCA2
:100D180033CCC58233C5829BED9AEC99E582984025
:100D28000CF582EE9BFEED9AFDEC99FC0FD5F0D602
:100D3800E4CEFBE4CDFAE4CCF9A88222B800C1B92C
:100D48000059BA002DEC8BF084CFCECDFCE5F0CB6A
:100D5800F97818EF2FFFEE33FEED33FDEC33FCEBA3
:100D680033FB10D703994004EB99FB0FD8E5E4F95E
:100D7800FA227818EF2FFFEE33FEED33FDEC33FC4B
:100D8800C933C910D7059BE99A4007EC9BFCE99A3F
:100D9800F90FD8E0E4C9FAE4CCFB2275F010EF2F84
:100DA800FFEE33FEED33FDCC33CCC833C810D70784
:100DB8009BEC9AE899400AED9BFDEC9AFCE899F8BF
:0E0DC8000FD5F0DAE4CDFBE4CCFAE4C8F92252
:0C0DD600A42582F582E5F03583F5832228
:100DE200BB010789828A83020E315005E9F8020E9F
:100DF20028BBFE05E9F8020E3A89828A83020E4375
:100E0200D083D082F8E4937012740193700DA3A37F
:100E120093F8740193F5828883E473740293686093
:060E2200EFA3A3A380DF93
:090E2800E6FB08E6FA08E6F922EF
:090E3100E0FBA3E0FAA3E0F922C2
:090E3A00E2FB08E2FA08E2F922E9
:0C0E4300E493FB740193FA740293F9220B
:00000001FF
